:020000040800F2
:100000000050002049AA0008E5170008E917000879
:10001000ED170008F1170008F517000800000000B0
:10002000000000000000000000000000F9170008B8
:10003000FD1700080000000001180008051800085E
:1000400091AA000891AA000891AA000891AA0008A4
:1000500091AA000891AA00080918000825180008AC
:1000600091AA0008411800086118000891AA000828
:1000700091AA000891AA000891AA000891AA000874
:1000800091AA000891AA000891AA000891AA000864
:1000900091AA000891AA000891AA000891AA000854
:1000A00091AA000891AA000891AA000891AA000844
:1000B000811800089D18000891AA000891AA00085C
:1000C00091AA000891AA000891AA000891AA000824
:1000D00091AA0008D518000891AA000891AA000862
:1000E000F518000891AA000891AA00080000000075
:1000F0000000000000000000000000000000000000
:0C01000000000000000000005FF808F1A3
:1001100010B5054C237833B9044B13B10448AFF341
:1001200000800123237010BD780000200000000033
:10013000ACCC000808B5034B1BB103490348AFF32F
:10014000008008BD000000007C000020ACCC00084E
:1001500081F0004102E000BF83F0004330B54FEA78
:1001600041044FEA430594EA050F08BF90EA020FE5
:100170001FBF54EA000C55EA020C7FEA645C7FEA78
:10018000655C00F0E2804FEA5454D4EB5555B8BF9B
:100190006D420CDD2C4480EA020281EA030382EA0C
:1001A000000083EA010180EA020281EA0303362D9E
:1001B00088BF30BD11F0004F4FEA01314FF4801C71
:1001C0004CEA113102D0404261EB410113F0004F83
:1001D0004FEA03334CEA133302D0524263EB43033A
:1001E00094EA050F00F0A780A4F10104D5F1200ED8
:1001F0000DDB02FA0EFC22FA05F2801841F1000133
:1002000003FA0EF2801843FA05F359410EE0A5F106
:1002100020050EF1200E012A03FA0EFC28BF4CF037
:10022000020C43FA05F3C01851EBE37101F00045ED
:1002300007D54FF0000EDCF1000C7EEB00006EEBFA
:100240000101B1F5801F1BD3B1F5001F0CD3490884
:100250005FEA30004FEA3C0C04F101044FEA4452DB
:1002600012F5800F80F09A80BCF1004F08BF5FEA62
:10027000500C50F1000041EB045141EA050130BD42
:100280005FEA4C0C404141EB010111F4801FA4F1E5
:100290000104E9D191F0000F04BF01460020B1FA3A
:1002A00081F308BF2033A3F10B03B3F120020CDA72
:1002B0000C3208DD02F1140CC2F10C0201FA0CF050
:1002C00021FA02F10CE002F11402D8BFC2F1200CB5
:1002D00001FA02F120FA0CFCDCBF41EA0C0190406B
:1002E000E41AA2BF01EB0451294330BD6FEA0404B4
:1002F0001F3C1CDA0C340EDC04F11404C4F120029F
:1003000020FA04F001FA02F340EA030021FA04F3B0
:1003100045EA030130BDC4F10C04C4F1200220FA07
:1003200002F001FA04F340EA0300294630BD21FA45
:1003300004F0294630BD94F0000F83F4801306BF0B
:1003400081F480110134013D4EE77FEA645C18BFFF
:100350007FEA655C29D094EA050F08BF90EA020F96
:1003600005D054EA000C04BF1946104630BD91EA8E
:10037000030F1EBF0021002030BD5FEA545C05D191
:100380004000494128BF41F0004130BD14F58004D0
:100390003CBF01F5801130BD01F0004545F0FE4144
:1003A00041F470014FF0000030BD7FEA645C1ABF79
:1003B000194610467FEA655C1CBF0B46024650EAB0
:1003C000013406BF52EA033591EA030F41F40021DC
:1003D00030BD00BF90F0000F04BF0021704730B562
:1003E0004FF4806404F132044FF000054FF0000137
:1003F00050E700BF90F0000F04BF0021704730B5F8
:100400004FF4806404F1320410F0004548BF4042CC
:100410004FF000013EE700BF42004FEAE2014FEA21
:1004200031014FEA02701FBF12F07F4393F07F4FFC
:1004300081F06051704732F07F4208BF704793F0FF
:100440007F4F04BF41F40021704730B54FF4607412
:1004500001F0004521F000411CE700BF50EA010215
:1004600008BF704730B54FF000050AE050EA0102BE
:1004700008BF704730B511F0004502D5404261EB2E
:1004800041014FF4806404F132045FEA915C3FF46F
:10049000D8AE4FF003025FEADC0C18BF03325FEA0C
:1004A000DC0C18BF033202EBDC02C2F1200300FABD
:1004B00003FC20FA02F001FA03FE40EA0E0021FAE2
:1004C00002F11444BDE600BF70B54FF0FF0C4CF4D0
:1004D000E06C1CEA11541DBF1CEA135594EA0C0F82
:1004E00095EA0C0F00F0DEF82C4481EA030621EABD
:1004F0004C5123EA4C5350EA013518BF52EA0335F8
:1005000041F4801143F4801338D0A0FB02CE4FF0A9
:100510000005E1FB02E506F00042E0FB03E54FF0D9
:100520000006E1FB03569CF0000F18BF4EF0010ED1
:10053000A4F1FF04B6F5007F64F5407404D25FEACD
:100540004E0E6D4146EB060642EAC62141EA555180
:100550004FEAC52040EA5E504FEACE2EB4F1FD0CC2
:1005600088BFBCF5E06F1ED8BEF1004F08BF5FEA40
:10057000500E50F1000041EB045170BD06F00046F2
:1005800046EA010140EA020081EA0301B4EB5C049F
:10059000C2BFD4EB0C0541EA045170BD41F4801197
:1005A0004FF0000E013C00F3AB8014F1360FDEBFBC
:1005B000002001F0004170BDC4F10004203C35DA98
:1005C0000C341BDC04F11404C4F1200500FA05F31B
:1005D00020FA04F001FA05F240EA020001F00042BC
:1005E00021F0004110EBD37021FA04F642EB060132
:1005F0005EEA430E08BF20EAD37070BDC4F10C045C
:10060000C4F1200500FA04F320FA05F001FA04F21F
:1006100040EA020001F0004110EBD37041F100010B
:100620005EEA430E08BF20EAD37070BDC4F1200516
:1006300000FA05F24EEA020E20FA04F301FA05F27E
:1006400043EA020321FA04F001F0004121FA04F226
:1006500020EA020000EBD3705EEA430E08BF20EAF6
:10066000D37070BD94F0000F0FD101F00046400030
:1006700041EB010111F4801F08BF013CF7D041EAB2
:10068000060195F0000F18BF704703F000465200B6
:1006900043EB030313F4801F08BF013DF7D043EA87
:1006A0000603704794EA0C0F0CEA135518BF95EA3D
:1006B0000C0F0CD050EA410618BF52EA4306D1D1C4
:1006C00081EA030101F000414FF0000070BD50EAE3
:1006D000410606BF1046194652EA430619D094EA6D
:1006E0000C0F02D150EA013613D195EA0C0F05D157
:1006F00052EA03361CBF104619460AD181EA0301AB
:1007000001F0004141F0FE4141F470014FF0000062
:1007100070BD41F0FE4141F4780170BD70B54FF0FD
:10072000FF0C4CF4E06C1CEA11541DBF1CEA13557D
:1007300094EA0C0F95EA0C0F00F0A7F8A4EB05045F
:1007400081EA030E52EA03354FEA013100F0888056
:100750004FEA03334FF0805545EA131343EA12631F
:100760004FEA022245EA111545EA10654FEA0026D4
:100770000EF000419D4208BF964244F1FD0404F58D
:10078000407402D25B084FEA3202B61A65EB0305E9
:100790005B084FEA32024FF480104FF4002CB6EBA6
:1007A000020E75EB030E22BFB61A754640EA0C0026
:1007B0005B084FEA3202B6EB020E75EB030E22BF66
:1007C000B61A754640EA5C005B084FEA3202B6EBA7
:1007D000020E75EB030E22BFB61A754640EA9C0066
:1007E0005B084FEA3202B6EB020E75EB030E22BF36
:1007F000B61A754640EADC0055EA060E18D04FEAF4
:10080000051545EA16754FEA06164FEAC30343EA93
:1008100052734FEAC2025FEA1C1CC0D111F4801F60
:100820000BD141EA00014FF000004FF0004CB6E759
:1008300011F4801F04BF01430020B4F1FD0C88BFF8
:10084000BCF5E06F3FF6AFAEB5EB030C04BFB6EB03
:10085000020C5FEA500C50F1000041EB045170BDF6
:100860000EF0004E4EEA113114EB5C04C2BFD4EB23
:100870000C0541EA045170BD41F480114FF0000EA7
:10088000013C90E645EA060E8DE60CEA135594EA23
:100890000C0F08BF95EA0C0F3FF43BAF94EA0C0F26
:1008A0000AD150EA01347FF434AF95EA0C0F7FF49B
:1008B00025AF104619462CE795EA0C0F06D152EAEF
:1008C00003353FF4FDAE1046194622E750EA4106D3
:1008D00018BF52EA43067FF4C5AE50EA41047FF4E4
:1008E0000DAF52EA43057FF4EBAE12E74FF0FF3C49
:1008F00006E000BF4FF0010C02E000BF4FF0010C1A
:100900004DF804CD4FEA410C7FEA6C5C4FEA430C92
:1009100018BF7FEA6C5C1BD001B050EA410C0CBFE1
:1009200052EA430C91EA030F02BF90EA020F002043
:10093000704710F1000F91EA030F58BF994208BFAA
:1009400090422CBFD8176FEAE37040F00100704767
:100950004FEA410C7FEA6C5C02D150EA013C07D1BE
:100960004FEA430C7FEA6C5CD6D152EA033CD3D009
:100970005DF8040B704700BF8446104662468C4603
:100980001946634600E000BF01B5FFF7B7FF002836
:1009900048BF10F1000F01BD4DF808EDFFF7F4FF5F
:1009A0000CBF012000205DF808FB00BF4DF808EDEA
:1009B000FFF7EAFF34BF012000205DF808FB00BF0D
:1009C0004DF808EDFFF7E0FF94BF012000205DF82F
:1009D00008FB00BF4DF808EDFFF7CEFF94BF0120E4
:1009E00000205DF808FB00BF4DF808EDFFF7C4FFDD
:1009F00034BF012000205DF808FB00BF4FEA410C26
:100A00007FEA6C5C02D150EA013C0AD14FEA430C08
:100A10007FEA6C5C02D152EA033C02D14FF0000045
:100A200070474FF0010070474FEA410212F5001283
:100A300015D211D56FF47873B3EB625212D94FEA25
:100A4000C12343F0004343EA505311F0004F23FA0F
:100A500002F018BF404270474FF00000704750EA64
:100A6000013005D111F0004008BF6FF00040704721
:100A70004FF00000704700BF4A0011D212F500127B
:100A800011D20DD56FF47873B3EB62520ED44FEAE6
:100A9000C12343F0004343EA505323FA02F0704766
:100AA0004FF00000704750EA013002D14FF0FF30A4
:100AB00070474FF0000070474FEA4102B2F1E04347
:100AC00024BFB3F5001CDCF1FE5C0DD901F0004C35
:100AD0004FEAC0024CEA5070B2F1004F40EB830085
:100AE00008BF20F00100704711F0804F21D113F1B1
:100AF0003872BCBF01F00040704741F480114FEAEA
:100B00005252C2F11802C2F1200C10FA0CF320FA72
:100B100002F018BF40F001004FEAC1234FEAD3238F
:100B200003FA0CFC40EA0C0023FA02F34FEA4303F9
:100B3000CCE77FEA625307D150EA01331EBF4FF082
:100B4000FE4040F44000704701F0004040F0FE409D
:100B500040F40000704700BF80F0004002E000BF9A
:100B600081F0004142001FBF5FEA410392EA030F98
:100B70007FEA226C7FEA236C6AD04FEA1262D2EBE2
:100B80001363C1BFD218414048404140B8BF5B42E7
:100B9000192B88BF704710F0004F40F4000020F080
:100BA0007F4018BF404211F0004F41F4000121F096
:100BB0007F4118BF494292EA030F3FD0A2F10102E0
:100BC00041FA03FC10EB0C00C3F1200301FA03F11E
:100BD00000F0004302D5494260EB4000B0F5000F41
:100BE00013D3B0F1807F06D340084FEA310102F100
:100BF0000102FE2A51D2B1F1004F40EBC25008BFB2
:100C000020F0010040EA03007047490040EB00007B
:100C100010F4000FA2F10102EDD1B0FA80FCACF1AA
:100C2000080CB2EB0C0200FA0CF0AABF00EBC250A9
:100C300052421843BCBFD0401843704792F0000F97
:100C400081F4000106BF80F400000132013BB5E7EA
:100C50004FEA41037FEA226C18BF7FEA236C21D060
:100C600092EA030F04D092F0000F08BF08467047C5
:100C700090EA010F1CBF0020704712F07F4F04D193
:100C8000400028BF40F00040704712F100723CBFA6
:100C900000F50000704700F0004343F0FE4040F4D0
:100CA000000070477FEA226216BF08467FEA23638E
:100CB0000146420206BF5FEA412390EA010F40F479
:100CC000800070474FF0000304E000BF10F00043C5
:100CD00048BF40425FEA000C08BF704743F09643AC
:100CE00001464FF000001CE050EA010208BF7047C7
:100CF0004FF000030AE000BF50EA010208BF70474E
:100D000011F0004302D5404261EB41015FEA010C62
:100D100002BF84460146002043F0B64308BFA3F15A
:100D20008053A3F50003BCFA8CF2083AA3EBC2533C
:100D300010DB01FA02FC634400FA02FCC2F120025B
:100D4000BCF1004F20FA02F243EB020008BF20F092
:100D50000100704702F1200201FA02FCC2F12002F8
:100D600050EA4C0021FA02F243EB020008BF20EAED
:100D7000DC7070474FF0FF0C1CEAD0521EBF1CEA1B
:100D8000D15392EA0C0F93EA0C0F6FD01A4480EA09
:100D9000010C400218BF5FEA41211ED04FF00063F2
:100DA00043EA501043EA5111A0FB01310CF000401E
:100DB000B1F5000F3EBF490041EAD3715B0040EA44
:100DC000010062F17F02FD2A1DD8B3F1004F40EB14
:100DD000C25008BF20F00100704790F0000F0CF0E7
:100DE000004C08BF49024CEA502040EA51207F3AAB
:100DF000C2BFD2F1FF0340EAC250704740F4000086
:100E00004FF00003013A5DDC12F1190FDCBF00F076
:100E100000407047C2F10002410021FA02F1C2F124
:100E2000200200FA02FC5FEA310040F1000053EAC0
:100E30004C0308BF20EADC70704792F0000F00F00E
:100E4000004C02BF400010F4000F013AF9D040EA14
:100E50000C0093F0000F01F0004C02BF490011F4A8
:100E6000000F013BF9D041EA0C018FE70CEAD153A6
:100E700092EA0C0F18BF93EA0C0F0AD030F0004C26
:100E800018BF31F0004CD8D180EA010000F00040DA
:100E9000704790F0000F17BF90F0004F084691F098
:100EA000000F91F0004F14D092EA0C0F01D14202D2
:100EB0000FD193EA0C0F03D14B0218BF084608D19B
:100EC00080EA010000F0004040F0FE4040F40000E5
:100ED000704740F0FE4040F4400070474FF0FF0C78
:100EE0001CEAD0521EBF1CEAD15392EA0C0F93EABF
:100EF0000C0F69D0A2EB030280EA010C49024FEA11
:100F0000402037D04FF0805343EA111143EA1013C9
:100F10000CF000408B4238BF5B0042F17D024FF481
:100F2000000C8B4224BF5B1A40EA0C00B3EB510F5C
:100F300024BFA3EB510340EA5C00B3EB910F24BF45
:100F4000A3EB910340EA9C00B3EBD10F24BFA3EBCA
:100F5000D10340EADC001B0118BF5FEA1C1CE0D192
:100F6000FD2A3FF650AF8B4240EBC25008BF20F045
:100F7000010070470CF0004C4CEA50207F32C2BF99
:100F8000D2F1FF0340EAC250704740F400004FF036
:100F90000003013A37E792F0000F00F0004C02BF67
:100FA000400010F4000F013AF9D040EA0C0093F031
:100FB000000F01F0004C02BF490011F4000F013B8B
:100FC000F9D041EA0C0195E70CEAD15392EA0C0FF3
:100FD00008D142027FF47DAF93EA0C0F7FF470AF2B
:100FE000084676E793EA0C0F04D14B023FF44CAF6E
:100FF00008466EE730F0004C18BF31F0004CCAD103
:1010000030F000427FF45CAF31F000437FF43CAF3E
:101010005FE700BF4FF0FF3C06E000BF4FF0010C60
:1010200002E000BF4FF0010C4DF804CD4FEA400242
:101030004FEA41037FEA226C18BF7FEA236C11D08C
:1010400001B052EA530C18BF90EA010F58BFB2EB3F
:10105000030088BFC81738BF6FEAE17018BF40F0BF
:10106000010070477FEA226C02D15FEA402C05D173
:101070007FEA236CE4D15FEA412CE1D05DF8040BF8
:10108000704700BF844608466146FFE70FB5FFF78B
:10109000C9FF002848BF10F1000F0FBD4DF808ED43
:1010A000FFF7F4FF0CBF012000205DF808FB00BF34
:1010B0004DF808EDFFF7EAFF34BF012000205DF88E
:1010C00008FB00BF4DF808EDFFF7E0FF94BF0120DB
:1010D00000205DF808FB00BF4DF808EDFFF7D2FFD8
:1010E00094BF012000205DF808FB00BF4DF808ED1B
:1010F000FFF7C8FF34BF012000205DF808FB00BFE8
:101100004FEA40024FEA41037FEA226C02D15FEAD4
:10111000402C08D17FEA236C02D15FEA412C02D136
:101120004FF0000070474FF0010070474FEA400257
:10113000B2F1FE4F0FD34FF09E03B3EB12620DD905
:101140004FEA002343F0004310F0004F23FA02F06F
:1011500018BF404270474FF00000704712F1610F16
:1011600001D1420205D110F0004008BF6FF00040ED
:1011700070474FF00000704742000ED2B2F1FE4FB0
:101180000BD34FF09E03B3EB126209D44FEA002356
:1011900043F0004323FA02F070474FF0000070471D
:1011A00012F1610F01D1420202D14FF0FF307047BE
:1011B0004FF00000704700BF30B5012200244FF40B
:1011C000803302254FF4E01191B006A806920A92EE
:1011D0000793CDE90D530F91089401940994CDE93B
:1011E0000B44CDE90244CDE9044400F0CFFC0F22CA
:1011F0004FF4806301A82946CDE902540594019279
:10120000049300F0BBFE11B030BD00BF2DE9F84FD4
:1012100000F086FC0025FFF7CFFF00F09FF800F0FC
:101220008FF900F07FFA00F005FA00F03FFA00F0C5
:101230002BF9202046F2644B4FF0640A3B4B3C4AAA
:101240002946D26883F825532A465860062001F0C3
:101250008FF8062001F0C2F82A462946072001F03F
:1012600087F8072001F0BAF82A462946092001F03C
:101270007FF8092001F0B2F829462A460A2001F039
:1012800077F80A2001F0AAF801F02CFD01F046FDE4
:1012900001F032FE07F030F907F0B4FC08F008FA6C
:1012A00009F09EF8234B244893F848102C46C0E9D7
:1012B00000558560214F224EDFF89490DFF894802E
:1012C000204DC1F30011204B89F8004088F8004000
:1012D0001C701E4BBC603C607C60C7E90344A7F8EF
:1012E00008B087F80AA01C703970C6E90044B460E1
:1012F0002C7007F09BF901F0B3FE07F02FFD01F011
:1013000079FD03F0D5F804F091FF01F07FFC04F0C3
:1013100007F908F00BF904F071FC01F0B7FE06F0D4
:1013200037FA06F0F7F83978CDE700BF00E100E0C2
:1013300000ED00E0F4340020D82D0020B42D002072
:10134000CC2D0020C82D0020E42D0020B02D002041
:10135000CA2D0020C92D0020704700BF2DE9F04F95
:10136000002489B0CDE90444CDE90644414BDFF8BF
:1013700010919A69DFF80C8142F010029A619A6923
:101380003D4F02F010020092009A9969224641F006
:10139000200199619969484601F020010191019964
:1013A0009D694FF4604145F004059D619D694FF0D2
:1013B000020A05F004050295029D9E69012546F08A
:1013C00008069E619B69032603F008030393039BB1
:1013D00000F0AAFF2246404641F6FF6100F0A4FF5C
:1013E00022463846202100F09FFF4FF4C0434FF4BF
:1013F000004B04A94846CDE90435CDE906A600F026
:1014000099FE484604A9CDE905540796CDF810B0D9
:1014100000F090FE41F6FF6304A940460493CDE935
:101420000554079600F086FE41F61B42134B04A9B3
:101430003846CDE90423069500F07CFE404604A919
:10144000CDE904B4CDF818A000F074FE202304A95F
:1014500038460493CDE90554079600F06BFE22460A
:101460002146282000F084FF282000F0B7FF09B0B3
:10147000BDE8F08F00100240000C01400000211078
:10148000001001400008014000224FF4804138B5AF
:101490000A4B0B4D0B4C1846C3E90222C3E9052247
:1014A000C3E90722C3E90054196100F05DFA00B9ED
:1014B00038BDBDE83840FFF74FBF00BFE82D002022
:1014C00000540040A0860100002330B50168184A8E
:1014D00087B09142CDE90233CDE9043301D007B0A2
:1014E00030BD4FF4407003221225124C02A9A369AB
:1014F00043F00803A361A369029003F0080300937B
:101500000D48009B0592039500F014FE0B4A5368AA
:1015100043F0E06343F002035360E36943F40013D4
:10152000E361E36903F400130193019B07B030BD4D
:101530000054004000100240000C01400000014037
:10154000F0B500249BB0214612A82022CDE9024428
:10155000CDE90444069409F0D0FA41F61F42602711
:10156000CDE90D44CDE90F44CDE90844CDE90A4465
:101570002C4E0C9407941194B3692B4D43F40063E3
:10158000B361B36902A903F4006301932846019B88
:10159000049201F007F92B6812AA23F080032B6054
:1015A000AB69284643F00803AB6101211297CDE9EE
:1015B0001344CDE91544CDE91744199401F028F9F5
:1015C000AB694FF4005223F00403AB616B6828460B
:1015D00023F070036B60AB68092723F08003AB60D6
:1015E00002250CA9CDE91024CDE90C440E948DF808
:1015F0003C40ADF83E4001F0E5F9B3690B4A43F0D9
:101600000403B361B36907A903F004030093084816
:10161000009B0A94CDE90875079201F0EFF91BB021
:10162000F0BD00BF00100240002C01400100010489
:1016300000080140002330B54FF0805587B0CDE958
:101640000133CDE90333164A0593D069154C40F0B8
:101650000100D061D269144802F001020092009AA0
:1016600001A9C26884F81C334FF08040256001F066
:1016700099F84FF080431A6822F080021A609A6845
:1016800022F4804222F007029A605A6822F0700227
:101690005A609A6822F080029A6007B030BD00BF9D
:1016A0000010024000E100E000ED00E0002370B512
:1016B0004FF0005686B0CDE90133CDE90333154A2A
:1016C0000593D069144C40F00200D061D269134DEB
:1016D000134802F002020092009A01A9C26885F83C
:1016E0001D3320462E6001F05DF8236823F080034F
:1016F0002360A36823F4804323F00703A360636897
:1017000023F070036360A36823F08003A36006B036
:1017100070BD00BF001002400004004000E100E086
:1017200000ED00E0F0B5002444F24000092103265A
:101730008FB0CDE90544CDE90844CDE90A44CDE9AF
:101740000C44254B07949A69244D42F480429A61D7
:101750009A694FF4612702F480420192019A9A69D2
:1017600042F008029A619B69029003F0080300931B
:101770000391284602A9009B049601F03FF948F224
:10178000800204230C2602A92846CDE9022301F099
:1017900035F9134A05F53055536807A943F0E0635E
:1017A00043F0040353602846CDE908440A94CDE988
:1017B0000C4407970B9601F0A7F92B6923F490438B
:1017C0002B616B6923F02A036B61EB6843F40053D0
:1017D000EB600FB0F0BD00BF00100240000C0140F4
:1017E00000000140704700BFFEE700BFFEE700BFFA
:1017F000FEE700BFFEE700BF704700BF704700BFB5
:10180000704700BF00F09EB908B5012000F092FDBE
:10181000012008F0FFFD4022014BC3F8802108BDE4
:1018200000E100E008B5022000F084FD022008F08D
:10183000F1FD8022014BC3F8802108BD00E100E0EA
:1018400008B5082000F076FD082008F0E3FD4FF40D
:101850000072024BC3F8802108BD00BF00E100E028
:1018600008B5102000F066FD102008F0D3FD4FF4FD
:101870008062024BC3F8802108BD00BF00E100E098
:101880004FF080431A69D20700D470476FF001010E
:10189000002219615A6207F0B3BC00BF0B4B1A69F2
:1018A000D20700D4704710B400206FF001044FF04D
:1018B0000051074A1C615862C2F88010BFF34F8F75
:1018C000BFF36F8F10BC07F0CFBD00BF0004004016
:1018D00000E100E010B5064CE3689B0600D410BDA3
:1018E0006068C0B206F024FE6FF02003236010BDD4
:1018F0000038014008B54FF4806000F01BFD4FF444
:10190000006000F017FD4FF4805000F013FD4FF41D
:101910008072034BC3F88421BDE8084002F00EBE7C
:1019200000E100E00E4B82B09A690E4942F00102DC
:101930009A619A6902F001020092009ADA6942F013
:101940008052DA61DB6903F080530193019B4B689D
:1019500023F0E06343F000734B6002B0704700BFB8
:101960000010024000000140002800F09780F8B508
:1019700090F83D30044603F0FF02002B00F0878012
:101980002423226884F83D30136823F00103136098
:1019900000F0C0FB62684B4B9A424BD84A4B9842CE
:1019A0007AD9431E5200B3FBF2F248492368A1FBE7
:1019B00000105968800C21F03F0101435960196AF9
:1019C000013021F03F0108431862501CC0F30B00A6
:1019D000042838BF0420D96921F44F4121F0FF01C8
:1019E000002520260843D8611968D4E9072021F092
:1019F000C00102430A431A609968D4E9030221F442
:101A0000034121F0FF0102430A439A60D968D4E9F7
:101A1000052021F0FF0102430A43DA601A682846D4
:101A200042F001021A60256484F83D60256384F861
:101A30003E50F8BD264B98422ED94FF49671234D57
:101A40002368A5FB0065AD0C01FB05F15E68214F25
:101A500026F03F06A7FB017135435D601D6A8909C9
:101A600025F03F05013129431962D969A56821F4A0
:101A70004F41013821F0FF0195B902EB4202B0FB62
:101A8000F2F00130C0F30B00C0B90120A8E780F8E4
:101A90003C20FFF719FD73E70120F8BD01207047D6
:101AA00002EB820202EB8202B0FBF2F00130C0F3E3
:101AB0000B000028E9D040F4404091E740F400409A
:101AC0008EE700BFA08601007F841E0083DE1B43DB
:101AD000FF083D00D34D621038B54FF47A730D49BD
:101AE0000D4A09781268B3FBF1F30546B2FBF3F037
:101AF00000F082FC08B90F2D01D9012038BD044641
:101B0000024629464FF0FF3000F032FC034B2046DE
:101B10001D6038BD000000200800002004000020E7
:101B2000074A08B51368032043F01003136000F060
:101B30000DFC0020FFF7D0FFFFF7F4FE002008BDEA
:101B400000200240034A044B11681B780B441360C9
:101B5000704700BF3C2E002000000020014B186899
:101B6000704700BF3C2E002038B50446FFF7F6FF53
:101B7000631C054602D0044B1B781C44FFF7EEFFA4
:101B8000401BA042FAD338BD00000020002800F01E
:101B900055812DE9F041036882B0DD07044635D553
:101BA000A8494A6802F00C02042A00F005814A683C
:101BB00002F00C02082A00F0FB806368B3F5803F56
:101BC00010D0002B00F02081B3F5A02F00F0788119
:101BD0009C4B1A6822F480321A601A6822F4802220
:101BE0001A6004E0974A136843F480331360FFF7E8
:101BF000B5FF944D064605E0FFF7B0FF801B642853
:101C000000F2F5802B689A03F6D523689F074DD420
:101C10001A0722D5A369002B00F0BA8001228A4B53
:101C2000884D1A60FFF79AFF064605E0FFF796FF1A
:101C3000801B022800F2DB806B6A9B07F6D5834B82
:101C4000834A1B68A2FB03235B0A019300BF019B2D
:101C50005A1E0192002BF9D123685D0769D5794B93
:101C6000DA69D00000F1EC800125DA6942F0805297
:101C7000DA61DB6903F080530093009B754B1A68AF
:101C8000D10540F1A380E368012B37D0002B00F091
:101C9000E780052B6B4B1A6A00F01F8122F00102CE
:101CA0001A621A6A22F004021A622CE0654A51682C
:101CB00011F00C0F61D0516801F00C01082959D0C6
:101CC0002369002B00F0EB800122634B5D4D1A600D
:101CD000FFF744FF064605E0FFF740FF801B0228A0
:101CE00000F285802B689807F6D52B68626923F08F
:101CF000F80343EAC2032B60236889E7514A136A59
:101D000043F001031362FFF729FF4E4E804641F274
:101D1000883705E0FFF722FFA0EB0800B84266D83D
:101D2000336A9B07F6D525B1464AD36923F0805321
:101D3000D361E069D0B1434D6A6802F00C02082A11
:101D400000F0D38002284FF00001444A00F0DE800A
:101D50001160FFF703FF2C46054604E0FFF7FEFE87
:101D6000401B022843D823689B01F7D4002002B00F
:101D7000BDE8F0815268D603A2D4324A12689507B2
:101D800039D52269012A36D0012002B0BDE8F081A0
:101D90002D4A2C4D1360FFF7E1FE064604E0FFF7E5
:101DA000DDFE801B022822D86B6A9F07F7D453E719
:101DB0004A68D0037FF501AF224A126891037FF58C
:101DC00025AF6268002A7FF421AFDDE71A681E465E
:101DD00042F480721A60FFF7C1FE07463368DA05E5
:101DE0003FF551AFFFF7BAFEC01B6428F6D90320B8
:101DF00002B0BDE8F081134960690A6822F0F80278
:101E000042EAC0020A6003E703F1804303F50433AA
:101E10001A681D4622F480321A601A6822F4802261
:101E20001A60FFF79BFE064604E0FFF797FE801B53
:101E30006428DCD82B689B03F7D4E6E601207047C2
:101E400000251BE7001002408004424208000020E9
:101E5000D34D6210007000400000424260004242D8
:101E600003F1804303F504331A6A1E4622F001028F
:101E70001A621A6A41F2883822F004021A62FFF7E5
:101E80006DFE074604E0FFF769FEC01B4045AED873
:101E9000336A9807F7D4002D3FF44BAF44E7344A38
:101EA000344D1360FFF75AFE064604E0FFF756FE76
:101EB000801B02289BD82B689907F7D42368A7E6D4
:101EC00003F18043A3F53C331A6842F480221A6080
:101ED0001A6842F480321A6089E642F004021A62FB
:101EE0001A6A42F001021A620DE701283FF44DAF71
:101EF0006B68226A03F4803191427FF445AF606AD7
:101F000003F47013181A18BF01203EE71160FFF7A1
:101F100025FE064605E0FFF721FE801B02283FF65E
:101F200066AF2B689901F6D4226AB2F5803F05D1DD
:101F30006B68A16823F400330B436B6001250D4BE4
:101F4000606A5968024321F474110B480A435A60CD
:101F500005601C46FFF702FE054605E0FFF7FEFDA3
:101F6000401B02283FF643AF23689A01F6D5FDE6F1
:101F700000004242001002406000424278B15D4AD7
:101F8000136803F007038B420BD2136823F0070397
:101F90000B431360136803F007038B4201D0012049
:101FA00070472DE9F041036886B09D0714D55C07A2
:101FB00004D5514C626842F4E06262601A0704D5AD
:101FC0004D4C626842F4605262604B4C85686268B6
:101FD00022F0F0022A436260DB0704460D4620D55A
:101FE0004268454B012A1B686FD0022A7ED09807B1
:101FF00027D5414E41F28838736823F00303134319
:102000007360FFF7ABFD074604E0FFF7A7FDC01BB9
:10201000404569D87368626803F00C03B3EB820F24
:10202000F3D1344A136803F00703AB420DD91368A8
:1020300023F007032B431360136803F00703AB423D
:1020400003D0012006B0BDE8F0812368590706D50A
:102050002949E0684A6822F4E06202434A601A07AC
:1020600007D5254A2169536823F4605343EAC10325
:10207000536040F20122214B06ACADF804200FCB97
:1020800004E90F001C494A6802F00C03082B1AD11E
:10209000C2F38343234413F8100CD30318D4184B12
:1020A00003FB00F3144A174852681749C2F303129E
:1020B000805C164AC34008681360FFF70DFD0020DE
:1020C00006B0BDE8F081124BECE79F0391D4B8E76E
:1020D0004A680F4BC2F3404203FB00F3224412F85C
:1020E000142CB3FBF2F3DDE70320ABE79E0180D4B1
:1020F000A7E700BF0020024000100240C4CC000847
:1021000000093D00D4CC0008040000200800002095
:1021100000127A00044B05495B68054AC3F30223A9
:10212000CB5C1068D840704700100240E4CC000837
:10213000080000200A68002A00F0DB802DE9F04F3B
:102140004FF0000A85B05546DFF8D0C1DFF8D0E186
:102150006D4FDFF8D08103E0013532FA05F378D016
:102160000123AB4002EA0304A342F5D14A68122AD4
:1021700000F09E8000F28780022A00F09D807CD9CA
:10218000032A69D0112A02D1CB6803F1040AFF2C7B
:1021900066D881460368AA000F2606FA02FB23EAE6
:1021A0000B030AFA02F21343C9F800304A68D3005D
:1021B00061D5DCF8189025F0030349F00109CCF84B
:1021C0001890DCF8189003F1804309F00109CDF86C
:1021D0000C9003F5803305F00309DDF80CB04FEAED
:1021E0008909D3F808B006FA09F62BEA0606704505
:1021F000019611D0404563D0444EB0427AD0444E4F
:10220000B0420CBF4FF0030B4FF0040B019E0BFAD2
:1022100009F946EA090601969E603B68D6034CBF61
:102220002343A3433B607B6896034CBF2343A343F4
:102230007B60BB68D6024CBF2343A343BB609202C2
:10224000FB6815D51C43FC600A68013532FA05F3BA
:1022500086D105B0BDE8F08FFF2C4FF0000A98D969
:1022600005F18042083A4368920000F1040993E7BF
:1022700023EA0404FC600A686EE7A2B1012A86D151
:10228000D1F80CA083E7234EB2420CD020D9224EC5
:10229000B24208D006F58036B24204D0A6F58016C8
:1022A000B2427FF474AF8A68E2B94FF0040A6EE775
:1022B000CB6803F10C0A6AE7CB6803F1080A66E70A
:1022C0004FF0010B0BFA09F946EA09060196A3E75C
:1022D000A6F58016B242E6D006F58036B2427FF40B
:1022E00056AFE0E7012A0CBF036143614FF0080AD3
:1022F0004DE770474FF0020B019E0BFA09F946EAD1
:102300000906019688E700BF000401400010014063
:1023100000140140000021100000311000100240A4
:1023200000080140000C014002B909040161704736
:10233000704700BF044A5169014200D1704708B597
:102340005061FFF7F5FF08BD000401404FF6FF01A3
:10235000064A0002D36800F4E0600B4043F0BF631C
:1023600043F400330343D360704700BF00ED00E047
:10237000184B30B4DB68C3F30223C3F10705042D07
:1023800003F1040428BF0425062C19D94FF0FF34AB
:10239000033B9C4022EA04044FF0FF32AA4021EAAA
:1023A000020101FA03F2224312010028D2B20ADB31
:1023B00000F1604000F5614080F8002330BC7047B8
:1023C00000242346E8E7044B00F00F0003441A768C
:1023D00030BC704700ED00E0FCEC00E0002807DBBB
:1023E000012300F01F01034A8B40400942F82030CE
:1023F000704700BF00E100E00138B0F1807F0DD2EE
:1024000030B4F02500220721054B064C586084F8B3
:102410002350104630BC9A60196070470120704705
:1024200010E000E000ED00E0002808DB012300F0F0
:102430001F01034A40098B40603042F8203070474A
:1024400000E100E02DE9F04F6E4F8046387E83B00A
:10245000012800F0AB809A460123894693463B76DB
:10246000FFF77CFB684C4CF25036054605E0FFF761
:1024700075FB401BB04200F29D80E368D807F6D49C
:10248000E368990644BF2023E3605F4BDA68D20615
:102490006DD4DA69D6076AD4DB685D0767D4B8F112
:1024A000010F00F0AB80B8F1020F14BF0423022328
:1024B00001934FF000084CF25036534C00204FEA85
:1024C0000812C2F12001F8610AFA01F12BFA02F3B5
:1024D000203A0B432AFA02F2216913439BB241F0DE
:1024E00001012161A9F80030FFF738FB054604E03F
:1024F000FFF734FB401BB04278D8E368D907F7D424
:10250000E3689A0644BF2023E360E368DB0606D451
:10251000E369DD0703D4E06810F0040057D03A4BBC
:10252000DB6813F0100367D0FB69142143F002034A
:10253000FB611023344AD268500704D50B46FA6970
:1025400042F00102FA61304AD169C90707D5F96939
:1025500041F00401F961D16921F00101D1612A4AF8
:102560000120D360136923F00103136123E0264B9C
:10257000DB6813F0100323D10421234AD2685407E7
:1025800004D50B46FA6942F00102FA611E4AD1698C
:10259000C80707D5F96941F00401F961D16921F053
:1025A0000101D161184A0120D36004E0022003B088
:1025B000BDE8F08F032000233B7603B0BDE8F08F29
:1025C000FB69142143F00203FB611023D5E7236963
:1025D00008F1010823F001032361019B5FFA88F2EF
:1025E000934209F102093FF669AFE4E7236903204A
:1025F00023F001032361DEE704219BE7CDF804808B
:1026000057E700BF402E002000200240064B18690B
:1026100010F0800006D00549054A59605A601869D3
:10262000C0F3C010704700BF00200240230167457F
:10263000AB89EFCD034A0020136943F08003136197
:10264000704700BF0020024070B50446FFF786FACD
:102650000646294D601C31D1274AD368D907FCD4DE
:10266000254BDA68960644BF2022DA60224BDA68EE
:10267000D50602D4DA69D40733D51F4BDB6813F0D3
:10268000100326D104211C4AD268500705D50B46F9
:102690001A49CA6942F00102CA61174AD169C907D9
:1026A00008D51648C16941F00401C161D16921F022
:1026B0000101D1610120104AD36070BDEB68DB07D6
:1026C000CED524B1FFF74AFA801BA042C2D903201D
:1026D00070BD0A481421C269102342F00202C2618F
:1026E000D1E7D86810F00400E7D0034BDB6813F0A3
:1026F0001003C7D0EDE700BF00200240402E0020AD
:102700000021064A064BD1611A6942F002021A61A1
:1027100058611A6942F040021A617047402E002049
:10272000002002401A4A10B4536803F00C03082B2F
:102730000CD1536803F4803313BB164B144A526810
:10274000C2F38342023203FB02F300E0124B104A51
:1027500003605168114CC1F30311615C104CCB4014
:1027600043605168C1F30221615C23FA01F1816089
:102770005268C2F3C222A25C10BCD340C36070474F
:102780005268054BC2F340420132B3FBF2F3D5E786
:102790000010024000093D0000127A00D4CC00086D
:1027A000E4CC000830B4194D0368A8428A680C884C
:1027B0001DD0B0F1804F11D0A5F59435A8420DD0B1
:1027C00005F58065A84209D00360C262846243694E
:1027D00030BC43F001034361002070474D6823F093
:1027E00070032B43C96823F440730B43ECE74D6837
:1027F00023F070032B43CD6823F440732B43036015
:10280000C26284620B7C0363E1E700BF002C0140DD
:10281000102970B403466DD048D9B1F5807F24D01B
:10282000B1F5805F63D1006A156920F480501862A9
:10283000196A5E6821F4005141EA053121F48051A2
:10284000D2E90005DC6941EA05315D4D24F4E64436
:10285000AB4244EA002400F0AC80D26800205E6005
:10286000DC611A6470BC19627047006A156920F453
:1028700080701862196A5E6821F4007141EA0521CE
:1028800021F48071D2E90005DC6941EA05214C4D53
:1028900024F07304AB4244EA000475D0D2680020EF
:1028A0005E60DC61DA6370BC1962704701291ED179
:1028B000006A156920F001001862196A5E6821F04B
:1028C0000201294321F00101D2E900059C69294355
:1028D0003B4D24F07304AB4244EA000440D0D2687C
:1028E00000205E609C615A6370BC196270470120D1
:1028F00070BC7047006A156920F010001862196AF0
:102900005E6821F0200141EA051121F01001D2E9B1
:1029100000059C6941EA0511294D24F4E644AB42C7
:1029200044EA002407D0D26800205E609C619A636C
:1029300070BC1962704721F0800126F48066D2E9EC
:10294000055041EA851146EA80069568D06921F074
:10295000400126F4006641EA851146EAC006E2E736
:1029600021F0080126F48076D2E9055041EA85017C
:1029700006439568D06921F0040126F4007641EA07
:10298000850146EA4006AAE721F4006126F4805654
:10299000D2E9055041EA852146EA00169568D069DA
:1029A00021F4806126F4005641EA852146EA40166A
:1029B00074E7906926F4804646EA80164DE700BF2A
:1029C000002C01400B7B10B4D1E90124234323F4F4
:1029D000806313430A6823F400631343CA8923F412
:1029E000805313430A6923F4005313434A6923F4C1
:1029F00040431343436410BC002070472DE9F04F5F
:102A00000D68C5F30F2595FAA5F4B4FA84F435FAE8
:102A100004F376D04FF0010B4FF00F0C4FF0030E84
:102A20004FF004095EE040F20113A3401E0E93FA3A
:102A3000A3FABAFA8AFA93FAA3F8B8FA88F882598C
:102A40004F684FEA8A0A0CFA0AFA4FEA880807FA2E
:102A500008F822EA0A0242EA08028251D0F80C8001
:102A60001A0A92FAA2FABAFA8AFA28EA02080F694E
:102A70004A6807FA0AFA22F0080248EA0A08012A14
:102A8000C0F80C802AD193FAA3FABAFA8AFA93FA18
:102A9000A3F8B8FA88F882598F684FEA8A0A0EFAC2
:102AA0000AFA4FEA880822EA0A0207FA08F842EA14
:102AB0000802825193FAA3F8B8FA88F893FAA3F3BC
:102AC000B3FA83F3CF684FEA88089B0009FA08F845
:102AD00022EA080207FA03F31A438251013435FA55
:102AE00004F30ED00BFA04F32B42F7D0072C9AD93B
:102AF0004FF00112A4F1080302FA03F343F08063DC
:102B000094E70020BDE8F08FC3689B0401D5012045
:102B1000704730B504460D46C2684B6822F4B05287
:102B2000D1E90301034322F00C020B431343E3609A
:102B30002369AA6823F440531343236163696A69D4
:102B400023F44073134385B063616846FFF7EAFDE1
:102B5000164B9C4227D0164B9C4205D0154B9C42ED
:102B600002D0012005B030BD029B002BF9D02A68AD
:102B7000002AF6D003EB8303920003EB8303B3FB3D
:102B8000F2F364210C4D0020A5FB03C2520901FBA6
:102B900012331B013233A5FB0313120102EB531254
:102BA00092B2A260DEE7039BDFE700BF003801407E
:102BB00000440040004800401F85EB5130B44FF402
:102BC0001F054FF000640E4B0E4A19680E4841F085
:102BD0000101196059680A405A601A6822F084722B
:102BE00022F480321A601A6822F480221A605A682D
:102BF00022F4FE025A609D60846030BC704700BFC2
:102C0000001002400000FFF800ED00E010B50A4C93
:102C10004021204600F0E6F82046802100F0E2F84E
:102C200020464FF4006100F0DDF82046BDE810407A
:102C30004FF4805100F0D6B80008014038B5044682
:102C40000D4604F043FAFF2C06D0032C03D8012DC7
:102C500036D0022D18D038BD012D1DD0022DFAD14D
:102C600040211B4800F0BEF88021194800F0BAF856
:102C70004FF40061164800F0B5F8BDE838404FF455
:102C80008051134800F0AEB8124B114833F81410BD
:102C9000BDE8384000F0A6B840210D4800F0A6F885
:102CA00080210B4800F0A2F84FF40061084800F0C2
:102CB0009DF8BDE838404FF48051054800F096B8C3
:102CC000044B034833F81410BDE8384000F08EB8C8
:102CD00000080140ECCC0008704700BF704700BFFF
:102CE000704700BF084A08B51068084B084AA3FBA4
:102CF00000139B0C1360FDF7E5FF0649FEF73AF859
:102D0000054B186008BD00BF0800002083DE1B4390
:102D100098000020000070429400002010B50F4C75
:102D20005022E368002143F02003E3600C4807F0E1
:102D3000E4FE0C4B0C491A68094807F0E7FE084905
:102D4000224611F8013B3BB1536013681B06FCD5CA
:102D500011F8013B002BF7D110BD00BF0038014036
:102D6000602E0020080000200CCD0008034B1A46FE
:102D7000586013681B06FCD5704700BF003801403F
:102D800008B5094B4FF4806193F860300748012B78
:102D90000CBF00220122FFF7C7FA054A536C23F447
:102DA0000043536408BD00BFF43400200008014014
:102DB000002C014008B5084B4FF4806193F8602067
:102DC0000648012A18BF0022FFF7AEFA044A536CE6
:102DD00043F40043536408BDF4340020000801406C
:102DE000002C01400022FFF79FBA00BF0122FFF72D
:102DF0009BBA00BF10B5064C4FF400512046FFF7B8
:102E0000F1FF2046BDE810404FF48041FFF7EABFD4
:102E100000100140044BD868DB68C0F340305B040D
:102E200048BF40F0020070470010014010B5064C4A
:102E30004FF400512046FFF7D5FF2046BDE8104073
:102E40004FF48041FFF7CEBF0010014038B5114D5F
:102E50006B783BB9044630B142060FD4230613D435
:102E600000232B7338BD4FF400510B48FFF7BAFF16
:102E70004FF480410848FFF7B5FFF1E74FF40051E8
:102E80000548FFF7B3FFE9E74FF480410248FFF739
:102E9000ADFFE5E7B42D00200010014038B5144C1B
:102EA0002378022B04D0054604F010F9637803B1AF
:102EB00038BD35B16A060FD42B0613D40023237313
:102EC00038BD4FF400510B48FFF78CFF4FF48041A1
:102ED0000848FFF787FFF1E74FF400510548FFF777
:102EE00085FFE9E74FF480410248FFF77FFFE5E700
:102EF000B42D00200010014010B40D4C2346C4F145
:102F0000006101F57C4104F580605A18127803F8DD
:102F1000012B8342F9D123780D2B06D04FF4806228
:102F2000FF21034810BC07F0E8BD10BC704700BF8C
:102F3000DC2E0020014B185C704700BFDC2E002007
:102F4000014B1954704700BFDC2E00202DE9F041E1
:102F5000002A4FD00023294F441E3C448E185D00A8
:102F600015F0FE0F11F8015B3DD105EBD313B14213
:102F7000DBB204F8015FF2D110443B54FFF746FB8B
:102F80001F48FFF7BDFB4CF25030FFF75DFB1D4AB9
:102F90001A4C13691C4E23F00203C4F1006713613D
:102FA00007F57C4704F58068361B25464FF6FF730E
:102FB00035F8022BE1199A4204F1040403D00023EE
:102FC0000120FFF73FFA4FF6FF732A88A1199A42B2
:102FD00003D000230120FFF735FA4445E5D1BDE8D1
:102FE000F041FFF727BB6B1CB14204F8015FDBB275
:102FF000B5D1C1E71346014FBFE700BFDC2E00206B
:1030000000FC000800200240FEFB0008F0B40AB3F8
:103010000023DFF848C04D1E6544871815F8014F9E
:103020005E0016F0FE0F04EBD31300F8014B04F121
:103030000106DBB20AD1B842F0D111441CF80100FC
:10304000F0BCC01AB0FA80F0400970478742F3B272
:10305000E4D1F2E71346DFF804C0EFE7DC2E0020EE
:1030600008B500214822074807F047FD064900201F
:1030700005F0D6FB00B108BD0720BDE8084004F00C
:10308000FBBA00BFDC3200200833002001490248AF
:1030900007F044BCD82D0020FC32002000000000C6
:1030A0002DE9F04F0546664E4C22002199B030467E
:1030B00007F023FD634B07CB1F889C78C6F80100FF
:1030C000C6F80510C6F80920A6F80D70F4732B7821
:1030D000242B00F05081042300220B93102309922B
:1030E0000A934FF00008AC5C8DF843204746CDF8BA
:1030F0002080CDE90688DFF85091002C00F0548143
:10310000A4F14103192B00F25E83531C0DF143011E
:1031100011AA28468DF8433001F09AFF002800F0EC
:103120005783DDF844B05846FDF776F908F0A0FA69
:10313000FDF7A2FC5FFA80FA5046FDF7C7FD014695
:103140005846FDF70DFD4946FDF714FEFDF764F9FD
:1031500008F040FAFDF790FC472C80B276D04D2C59
:1031600040F0D980002840F0E881BAF1640F00F205
:10317000FD80DFE81AF0A501A501A501BA01BA0199
:10318000BA01FB00C701C701C701FB00FB00FB0040
:10319000FB00FB00FB00FB00FB00FB00FB00FB0057
:1031A000FB00FB00FB00FB00FB00FB00FB00FB0047
:1031B000FB00A501FB00FB00FB00FB00FB00FB008C
:1031C000FB00FB00FB00FB00FB00FB00FB00FB0027
:1031D000FB00FB00FB00FB00FB00FB00FB00FB0017
:1031E000FB00FB00FB00FB00FB00FB00FB00FB0007
:1031F000FB00B001B501FB00FB00D401D901FB00CD
:10320000FB00FB00FB00FB00FB00FB00FB00FB00E6
:10321000FB00FB00FB00FB00FB00FB00FB00FB00D6
:10322000FB00FB00FB00FB00FB00FB00FB00FB00C6
:10323000FB00FB00FB00FB00FB00FB00FB000B01A5
:1032400024330020DC3200200000C842BAF15E0FB7
:1032500000F28C80DFE81AF07A007A007A007A00B7
:10326000D4018A008A008A008A008A0092018A00BA
:103270008A008A008A008A008A007C017C017C0125
:10328000CB01CB018A008A008A008A008A008A006A
:1032900092018A0092018A008A008A008A008A00CC
:1032A0008A008A007A008A006D018A008A00B901CA
:1032B0008A008A008A008A008A00B9018A008A008E
:1032C0008A00D401A601A601A601A601A601A601B5
:1032D0008A0085018A008A008A008A008A008A00A2
:1032E0008A008A008A008A008A008A008A008A008E
:1032F0008A008A008A008A008B018A008A008A007C
:103300008A008A008A008A008A008A007301730199
:103310009201B001B001453C152C27D8DFE814F02C
:10332000F201FB012600260003020F021B02270206
:103330002600A8012600B901C101CA01D201E2019B
:103340002600260026009B018E017F01079B002B93
:1033500040F0E183BAF1260F86F801A040F08582A3
:10336000A0F114039BB21E2B40F2088214231846CE
:1033700019B0BDE8F08F012300227370099305276F
:103380001123B270CDE90A370322AAE60123F373B1
:103390004FF400431F4240F03D821F439DF84320FD
:1033A000AC5C002C7FF4ACAE069B23B1079B002BDA
:1033B00008BF0223079318F0200F04D0C64B726A8F
:1033C0009A4200F34082099B002B40F02582B3789B
:1033D000012B00F08183C14B5B7833B918F0010FEA
:1033E00040F01E82BD4B5B69336118F4807F02D1CF
:1033F000BA4B1B6933633478042C00F03E82737936
:10340000002B00F08282012B40F075824FF0000902
:103410004FF0020A0525CDE90D93CDF830A0F378E1
:10342000012B00F03A82079B032B00F02C82AC4B5F
:1034300093E8070012AB83E80700B8050ED5F079D2
:10344000062800F25A83A54B9B79834206D012A925
:1034500005F0E6F9002800F0998334780A2C00F092
:10346000F4825C2C40F06682069B002B00F05183B6
:10347000DB0700F15283994B9B6BB363069B9C0760
:1034800000F18783954BDB6BF363069BC3F38003EB
:10349000002B00F03483914B14991C46986AFDF779
:1034A0005FFB316CFDF75CFB616CFDF759FB0023A2
:1034B00074780F933064502C40F009831F2356E733
:1034C000BAF1000F00F09C81BAF1010F40F0938136
:1034D0004FF400635EE7012333734FF4004359E771
:1034E000022333734FF4004354E7BAF1040F00F0A2
:1034F000AC81BAF1050F40F079810023B3724FF42B
:10350000805347E7BAF1080F00F0A481BAF1090F20
:1035100040F07B81002373724FF400533AE701239C
:1035200073734FF4004335E70123B3734FF4004343
:1035300030E7802300283FF42DAF172317E700283A
:1035400040F04B81AAF15A0A86F804A0082321E72B
:10355000AAF1110A86F805A0042300283FF41AAF47
:10356000EBE700287FF402AF4FF4806312E75023AB
:103570007370022300283FF40DAFDEE7002840F00F
:103580000D81079B002B40F0C682BAF11C0F86F814
:1035900000A000F05581BAF11E0F00F05181012307
:1035A000079303E1AAF1360A86F807A04FF40073E7
:1035B00000283FF4EFAEC0E7CAF15E0A86F802A029
:1035C000202300283FF4E6AEB7E7079B002B40F02E
:1035D000A282BAF1310F00F042810A287FF4C6AE10
:1035E0000122B27103224FF480730792D2E6CAF12E
:1035F000150A86F803A0402300283FF4CBAE9CE7D1
:10360000BAF11C0F86F800A000F0D480BAF11E0FAA
:1036100000F0D080012300283FF4BCAE8DE7069B6C
:1036200018F4805F43F00403C6F840B0069340F0FE
:1036300022814FF4805448EA0408AFE6069B18F450
:10364000006F43F00203C6F83CB0069340F01381CC
:103650004FF40064EFE7069B18F4806F43F001031A
:10366000C6F838B0069340F006814FF48064E2E774
:103670005846FDF75BFD18F0200F706240F0FB80AC
:10368000202458460021FDF713FD0028D3D0042341
:103690006DE618F0400FC6F828B040F0EC804024EA
:1036A000EFE718F4003FC6F848B040F0E4804FF46C
:1036B0000034C0E718F0800FC6F82CB040F0DB8073
:1036C0008024B8E718F4807FC6F830B040F0D3808B
:1036D0004FF48074D5E700BF80969800DC3200205C
:1036E0000833002090495846FDF700FD002840F0BF
:1036F000858318F4007F86F834A040F0BC804FF436
:103700000074BEE718F4803F86F844A040F0B38010
:103710004FF480348FE718F0010FC6F810B040F076
:10372000AA800124ADE7089B18F0020F43F00103C3
:10373000C6F814B0089340F09E8002247BE7089BF3
:1037400018F0040F43F00203C6F818B0089340F0D5
:10375000928004246FE7089B18F0080F43F00403DD
:10376000C6F81CB0089340F08680082463E718F080
:10377000100F86F820A07ED110245CE76B4A22FA55
:1037800003F3DC077FF5F2AD0222694B0792A3FB3E
:103790000013DB08763B73701346FBE5BAF11C0F90
:1037A00086F800A007D0BAF11E0F04D0BAF15C0F62
:1037B0007FF430AF10B10A287FF4D8AD824486F888
:1037C00000A00123E6E50123184619B0BDE8F08FFB
:1037D0000223184619B0BDE8F08F0A287FF4C6AD61
:1037E000BAF15A0F3FF4C2AD1023D3E51023B372E0
:1037F0004FF48053CEE586F808A04FF40063C9E586
:10380000032333724FF40063C4E5802373724FF4D3
:103810000053BFE51523AAE518F0010F00F06B81F6
:10382000F378012B7FF4E1AD3069FCF7F5FD3CA3A3
:10383000D3E90023FCF748FEFDF73EF93061D4E5FB
:1038400001230793BAE71B2391E52023B3724FF4BA
:1038500080539FE5402373724FF400539AE503228F
:10386000B37107924FF4807394E502230793002805
:103870003FF490AD61E6192379E518F0400F38D098
:1038800028F04008BBE5B379012B7FF4D0AD069B4F
:10389000042B3FF4CCAD252369E5069BD9070BD556
:1038A000B06BFCF7B9FD1EA3D3E90023FCF70CFEB7
:1038B000FDF702F9069BB0639A070BD5F06BFCF796
:1038C000ABFD17A3D3E90023FCF7FEFDFDF7F4F8E9
:1038D000069BF0635B077FF5A6AD306CFCF79CFDA3
:1038E0000FA3D3E90023FCF7EFFDFDF7E5F8306403
:1038F00099E51C233BE54FF0010A4FF00209002334
:10390000CDE90CA906250E9389E54FF001099A46E9
:10391000CDE90C39022303250E9380E5AFF3008037
:10392000666666666666394000007F4301041040A3
:10393000CDCCCCCC079B032B21D0069AFAB133799E
:10394000002B00F05381D00700F19A82A04B910721
:103950001B6AB36340F1A182352C00F008819C4BB7
:10396000F16B586AFDF7FEF8069BF063580740F1CB
:103970002B81974B316C986AFDF7F4F830641E2C5C
:1039800000F01481352C00F0F5801C2C00F0F9803B
:103990007478502C40F0F280069B002B7FF48EADA3
:1039A000099A0F93002A00F0AF8028F021030799AD
:1039B00009B123F47C43317B19B15D0699D523F01D
:1039C0004003717B39B183491940002991D023F418
:1039D000003323F05003B17B21B113F4403F88D072
:1039E00023F44033F17B39B17B491940002980D061
:1039F00023F4003323F04003002B40F0D480CDE9C2
:103A000015331793002A00F0228137F0490340F064
:103A100026823378352B02D0002B40F020826C4A6E
:103A200015A8117A537A12690B436C498DF85C30F2
:103A3000169200F00DFD034600287FF498AC684A0A
:103A4000684C07CA84E8070091E4069B002B60D00D
:103A500018F0500F3FF44DAFB06AFCF7DDFC07F0F3
:103A600007FEFDF709F8C0B2062846D896F82030C0
:103A7000142B06D0022B7FF479AC18F0800F7FF462
:103A800075AC002800F0E2810138C3B218460F93EC
:103A9000554904F0C5FE002878D096F8203028F06B
:103AA0005008142B069B00F0BF82D90702D5B36BD8
:103AB0007361069B9A0702D5F36BB361069B5C07A3
:103AC00001D5336CF3617478502C3FF4F7AC079B4D
:103AD000022B2CD0099A65E7079B022B7FF485AC5B
:103AE0007378502B3FF481AC002B3FF47EAC18F080
:103AF000010F7FF47AAC162339E41D2337E4344AEE
:103B00000F93126C3264DEE728F4487323F001034C
:103B10004DE71A232BE4182329E42D4B1299186A38
:103B2000FDF71EF8B16BFDF71BF8B063A6E494B186
:103B300000213069FDF7B2FA0028DCD18C2C00F0AE
:103B4000948300F28A83022C00F0C682032C00F0DA
:103B5000C582012CBED1069B099A002B079B08BF8A
:103B6000002307931EE7069B9B0740F19681069B67
:103B70005A0729D57478012C00F23D8100230F9358
:103B8000A5E71949062004F04BFEA8B90723FFF763
:103B9000EEBB0F4B1399586AFCF7E2FFF16BFCF791
:103BA000DFFFF06371E42423FFF7E1BB0E49072038
:103BB00004F036FE0028E9D0069B002B40F032814D
:103BC000099A0F930793EDE6014B9B6A3364D6E69F
:103BD000DC320020500002004000020024330020AC
:103BE0005C330020FC32002038330020D10713461C
:103BF00040F13881352C09D09D4B1299986BFCF718
:103C0000B1FFB16BFCF7AEFF069BB0639A0740F1C2
:103C10002181352C09D0964B1399D86BFCF7A2FF64
:103C2000F16BFCF79FFF069BF0635807CCD5352C52
:103C3000A0D08F4B1498196CFCF794FF316CFCF7F3
:103C400091FF8B4B596CFCF78DFF306497E6894BE5
:103C500093F848309C0713D57378013B022B04D9A5
:103C6000099B43F04003DBB20993069B1BB1079B02
:103C7000022B00F07C837E4B5B7A102B00F0B1812D
:103C8000099B03F040057A49726AB378CA614B70A8
:103C900013B108238DF85C30754A3369D2F810806F
:103CA000376B404639465361EDB21593547AFDF7B0
:103CB000F5F9002800F0A580099B980600F1A18085
:103CC000474605B91697B07A96F83430684DA04249
:103CD0002B7604D0169905F073F9B47A6C72644DA2
:103CE0009DF85C20707A2B7A144383428DF85C40F7
:103CF00008D0FFF7D3F8707A002840F086819DF84D
:103D00005C40287233780443042B8DF85C4000F04B
:103D1000BB81F378564972798B70079B0A71032B2C
:103D200000F0E280524CF379A2799A4208D012AAAC
:103D3000A37104F12C0307CA83E8070006F0E4FD31
:103D4000337832794A49262BCA7000F0988140F2C4
:103D5000AF805C2B00F03D81662B00F03081282B7A
:103D600003D14549072004F083FC7378404A502B67
:103D7000137003D0079A022A00F00281337A3C4A7A
:103D8000D371002B40F0C380347B54B1B06AFCF790
:103D900043FB07F06DFCFCF76FFE2146C0B2FEF757
:103DA0004DFF737B63B1B06AFCF736FB07F060FC34
:103DB000FCF762FE96F82010C0B2304AFEF790FF82
:103DC000B37B23B12D4996F84400FEF787FFF37BC0
:103DD000002B3FF4CCAAB06AFCF71EFB07F048FCAE
:103DE000FCF74AFE2549C0B204F0CEFE01F098FB74
:103DF0000023FFF7BCBA1E23FFF7B9BA2623FFF74B
:103E0000B6BA64B1099B190609D4002D00F00481EB
:103E10002046002105F0D4F8154B376B5C7A144B23
:103E20001F614EE7D90703D4114B1B6A7361069BD0
:103E30009A0703D40E4B5B6AB361069B5B0702D4FF
:103E40000B4B9B6AF36100230F933CE6F3790F93CE
:103E500018461DE6064B5B6AF363069BE5E61023F6
:103E6000FFF785BA024B1B6AB363069BCEE600BF21
:103E7000DC320020F4340020FC3200206C330020BF
:103E8000352C3FF470AE8D4BB16B186AFCF76AFEAF
:103E9000069BB0639A073FF562AD884B5B6AF3639C
:103EA000069B5B077FF590AE352C7FF462AD61E633
:103EB0001C2B00F0ED801E2B00F0EA800A2B7FF413
:103EC00054AF0F9D7E4C2846214604F0D1FB7B4B1E
:103ED0009B79AB427FF449AF94E80700794B83E8C4
:103EE000070006F011FD40E7B3794B710BB90023D1
:103EF0003364346C714B2146586CFDF7CFF80028C1
:103F00007FF410AF6D4B5C6406F0FEFC0AE703F033
:103F1000DDF86A4BDB79032B28D046F2644200249B
:103F200001206421684B654D1A811A782C71022A90
:103F3000EC70AC712C812880997210D005F12C01A5
:103F4000204604F06DFC00283FF420AE06F0DCFCB7
:103F50002046002104F09CFF2046FEF777FF082052
:103F600003F0B8FB0023554AD3710DE7564B1B787D
:103F7000022BF7D0082006F01DFD02F0B9FEF1E794
:103F8000012B00F04E82002B00F03E82023B012B01
:103F900040F208829DF85C304C4D43F00403099ACE
:103FA00015A928468DF85C3000F08CFF002840F001
:103FB000F181474C95E8070084E80700DEE600231E
:103FC000444AA2F138018B63C2E9013306F09CFC3C
:103FD000CBE6404B3D4A07CA83E8070006F094FC55
:103FE000C3E6364B09991B7801F04005013B022BD3
:103FF000EAB200F2C481002A3FF445AE41F020034A
:10400000DBB2099303F040053DE62C4A9DF85C4085
:10401000137A1843107275E63946204604F0D0FF33
:10402000264B376B5C7AFAE6D80708D5234B996B99
:10403000186AFCF795FDB16BFCF792FD7061069B69
:10404000990708D51D4BD96B586AFCF789FDF16BB0
:10405000FCF786FDB061069B5A077FF534AD174B20
:104060001C46196C986AFCF77BFD316CFCF778FDF7
:10407000616CFCF775FD7478F061FFF71CBA1449A8
:10408000062004F0F5FA70E6B06A00F0DBFE40E6C8
:104090009DF85C3043F001038DF85C30079B002BEA
:1040A00040F0C681064D0A4C284615A900F07AFC5E
:1040B00095E8070084E8070057E600BFDC320020DF
:1040C0003833002008330020B42D00205C3300205A
:1040D000FC320020143300200B9B0993069B002B1D
:1040E0003FF417AD2B4200F03F81C14C0AF10E02A4
:1040F0000AF1080354F8231056F82200FCF730FDAB
:1041000009F10E0209F108030A9054F8231056F839
:104110002200FCF725FD18F08004834600F0BB80E8
:104120000C22B449B44828F0800806F0D7FC0028D7
:1041300000F0FC80F06AFCF76FF9F378012B07D1EF
:10414000A5A3D3E90023FCF7BFF9FCF7B5FCF062A7
:10415000F06AFCF761F904460D460022A74BFCF714
:10416000B3F922462B46FCF7AFF90A9B04460D46ED
:1041700018461946FCF7FEFDFCF74EF902460B46C1
:1041800020462946FBF7E8FF04460D4658465946A7
:10419000FCF7F0FDFCF740F902460B4620462946A5
:1041A000FBF7DAFFFCF788FC00210446FCF780FFF0
:1041B000002840F00D812046FCF72EF907F048FB5F
:1041C00005460C460A98594601F02CF8FCF724F9EC
:1041D00004F100440B46024621462846FCF79EFAAD
:1041E000FCF76AFC7378F56A032B04464FF0000174
:1041F00008BF00F100442846FCF75AFF20B105F142
:10420000004504F10044F56259462046FCF7B2FD32
:104210000AF10405DDF828A001465046FCF7A0FC91
:104220004FF07C51FCF7A6FD06EB85056860514612
:104230002046FCF79FFD5946FCF794FC4FF07C515B
:10424000FCF798FD09F10409099B06EB890903F0C5
:104250000102C9F80400FFF7A5BB8E2C05D002D3DC
:104260008F2C7FF437AC0A9B099304F17203DBB205
:10427000012B40F2E280069B002B3FF44AAC0C225B
:104280005C495D4806F02AFC00284FD0099B03F0EA
:104290000102FFF787BB089B2B4262D0F37828F01E
:1042A0000E08012B45D009F1040506EB8505696868
:1042B0005846FCF755FC81460AF1040406EB8404D9
:1042C00061680A98FCF74CFC494600F0ABFF69684E
:1042D0008146606800F0A6FF054648462946F5621B
:1042E000FCF73EFC20F000442046FCF795F83CA388
:1042F000D3E9002382468B46FCF776FB0028C5D025
:1043000020464FF07C51FCF7F1FE78B92846FCF7C7
:1043100083F835A3D3E90023FCF7D6F802460B4611
:1043200050465946FCF760FB0028AFD02123FFF729
:104330001EB8334D089B234113F0010F04F1010413
:104340000AD02868FCF768F823A3D3E90023FCF718
:10435000BBF8FCF7B1FB2860032C05F10405E9D19B
:10436000A1E72323FFF703B82023FFF700B8099B39
:1043700063F07F03DBB2099303F0400583E4002A76
:104380007FF481AC099B43F02003DBB2099303F077
:10439000400578E401287FF4F1AC1A49164806F08C
:1043A000BDFAEBE4099B134DC3F3800304930E9B0A
:1043B000114C03930D9BF76A02930C9B15A9019373
:1043C0002246A5F124032846009700F021FBF1E5E1
:1043D0002223FEF7CCBF00BF66666666666639407C
:1043E0007B14AE47E17A743FFCA9F1D24D62503F95
:1043F000DC3200205C330020FC3200200000104042
:1044000038330020D82D00209DF85C300E4D43F04D
:10441000010315A928468DF85C300C4C00F0C2FA57
:10442000C8E5094D15A9284600F0BCFA074CC1E5BE
:1044300015A9054800F0B6FA34E6099B43F00803D5
:10444000DBB2099317E700BF5C330020FC32002089
:1044500070B50546037A086943F00403124A2860E0
:104460002B7292F8483001F138049B0603D52046A0
:1044700006F070FAA8B90D4E2046294600F092FACF
:10448000347814B10024204670BD01F091F8002862
:10449000F8D02023337005F04FF904F02BFE2046AE
:1044A00070BD0F24204670BDF4340020B42D0020D0
:1044B000074B93F848301B0708D44FF48072054B24
:1044C000C3F88420BFF34F8FBFF36F8F704700BFD7
:1044D000F434002000E100E04FF48072034BC3F895
:1044E0008420BFF34F8FBFF36F8F704700E100E070
:1044F0000F4B104A9B6892F848209BB2520658BF57
:1045000083F4E0538BB10C4A10885188034218BFE2
:104510000120928808BF00200B4218BF40F0020023
:10452000134203D040F0040070471846704700BFA4
:10453000000C0140F4340020FCCC000808B5144BFA
:104540001B78012B02D0134B1B7803B108BD124B13
:10455000124A9B6892F848209BB2520658BF83F4D7
:10456000E053002BF2D00E4A50881188034201EA32
:10457000030102D19288134206D000F035FDBDE858
:104580000840012006F02ABA0029F6D108BD00BF74
:10459000B42D0020E42D0020000C0140F434002054
:1045A000FCCC00082DE9F04FB44D8FB06B7813B1FF
:1045B0000FB0BDE8F08F04460621B14A059010689F
:1045C000928814F00107CDE9093308930690ADF8FD
:1045D0001C208DF8281040F0EC800026A94C059B8B
:1045E000C3F340030493C3B1A06AFBF715FF002295
:1045F0004FF04043FBF768FF804630468946FBF7A3
:104600000BFF02460B4640464946FCF7CFF920B95E
:1046100040464946FCF750FA0646059BC3F3800323
:104620000393B3B1E06AFBF7F7FE00224FF040437B
:10463000FBF74AFF804689463046FBF7EDFE4246CF
:104640004B46FCF7D1F920B940464946FCF734FA0D
:1046500006464FF00108236D4FF0040B0193FBB2A7
:1046600002934346B0461E46DFF82C92DFF82CA298
:1046700085490BA806F052F9029B002B00F0398106
:10468000002194F84920804BD707196040F14181FF
:10469000002E40F04181CDF82C8002220120BDF88F
:1046A0001870049B83B1002094F84910764B586031
:1046B000880740F12781002E40F02781CDF8308017
:1046C0001046BDF81A100F43039B8BB1002194F8DC
:1046D00049206D4B013099605107C0B240F12081F3
:1046E000002E40F02081CDF83480BDF81C301F43EF
:1046F000FCF7E8FA07F00CF9EF8001460198FCF7A7
:1047000039FB08A908900BA801F076F804232B7157
:1047100005F012F804F0EEFC002E62D105F00CF862
:1047200099F8003013F0340F40F095807A07F3D1F8
:1047300004F0FCFEB4F8540000F056FD96F00106BB
:1047400000F0DB805149A06DFCF714FB8046E36C60
:1047500001930BF1FF3B1BF0FF0B89D15E46DDF8A7
:10476000148048FA06F3B70013F0010F04EB0701B9
:1047700017D094F84930A26D3341DB0702F10040B5
:1047800054F8269040F1D380496A1046FCF7EAF9C4
:104790004946FCF7EFFAFBF73FFE06F0D5FE3A4B31
:1047A000D8510136032EDCD100232B710FB0BDE8A8
:1047B000F08F344C606AFBF72FFE00224FF040432D
:1047C000FBF782FE0022002380468946FCF7EEF8C4
:1047D000002840F0BC8040464946FCF76DF906468B
:1047E000FDE62B4B94F848209B6852069BB258BFBD
:1047F00083F4E05333B3BAF80020BAF8021013423E
:1048000014BF012200220B42BAF8041018BF42F074
:1048100002020B42BDF8183018BF42F004021F42DA
:1048200002D0D00748BF9F43BDF81A301F4202D0C4
:10483000910748BF9F43BDF81C301F4202D0920829
:1048400018BF9F43EF8004F077FF99F8003013F012
:10485000340F3FF46BAF99F80070FFB2FA066ED4D4
:10486000BB061DD40EB379076DD40A4B1B78002B01
:104870006FD1042006F0A8F85AE700BFB42D00203D
:1048800004CD0008F4340020D82D00200000A04002
:10489000000C0140E42D0020C92D0020FCCC0008B4
:1048A000072006F09BF8002EDDD12C4B94F8482011
:1048B0009B6850069BB258BF83F4E053002BD4D0C2
:1048C000BAF80020BAF80210134214BF01220022E5
:1048D0000B42BAF8041018BF42F002020B42059BCB
:1048E00018BF42F004021342BFD0082006F076F849
:1048F000BBE71F4618460122D3E6236DD4F8588043
:10490000019326E7002E7FF4D9AE08F100410C9107
:10491000D6E6002E7FF4BFAE08F100420B92BCE653
:10492000002E7FF4E0AE08F100430D93DDE649462A
:10493000FCF720FAFBF770FD06F006FE2FE70620D5
:1049400006F04CF88CE7092006F048F88DE70026C1
:1049500045E600F049FB02F0CBF929E6000C0140E6
:1049600010B505F0F7FFC8B101230D4C2078E370B6
:10497000082808D000F038FB022006F02FF8BDE828
:10498000104002F0B5B906F015F802E02378002BCC
:10499000F0D002F0ADF96378002BF7D010BD00BF66
:1049A000B42D0020F8B5174D174C95F848200E4649
:1049B00091062378074604D5202B0AD0FFF7D0FFB5
:1049C0002378022B05D1F8BD00F01EFE38B101F0AE
:1049D00087FC02F08DF96378002BF5D0F3E73846B9
:1049E000314600F009FF0028EDD195F848309A07CC
:1049F000E9D5337ADB06E6D571681020BDE8F840CA
:104A000004F0DEBAF4340020B42D002000000000D1
:104A10002DE9F04F1F468FB09DF86440934653F840
:104A20002450A3000B900791284652F824101A44F2
:104A3000FB1801920893FCF795F89DF86860824690
:104A400057F82680B300FA185BF826105B440390F1
:104A5000404609920293FCF785F80B9F5146814628
:104A6000049057F82400FCF77BF84946044657F8B1
:104A70002600FCF775F805F1004506462146284654
:104A8000FCF778F908F10048074631464046FCF744
:104A900071F901463846FCF765F831460746284665
:104AA000FCF768F9214606464046FCF763F90146E3
:104AB0003046FCF755F839469DF87060189C9DF813
:104AC0006CA006F023FF0590002E00F09181FBF70B
:104AD000A3FCA3A3D3E9002306460F46FBF77AFF06
:104AE00068B1A1A3D3E9002330463946FBF734FB74
:104AF000FBF7E2FF0590FBF78FFC06460F469E4B47
:104B00002146D3F83C902046FCF72CF84946FCF7A8
:104B100027F84946FCF72EF906F0FAFE0022974BDB
:104B2000814639463046FBF7CFFC064620460F4605
:104B3000FBF772FC02460B4630463946FBF7C4FCD5
:104B40000446484621F00046FBF766FC0B46024649
:104B500031462046FBF7E2FD06F072FCFBF78CFFC6
:104B600083B20093002B00F060811846FCF7AEF88A
:104B7000079F06463C7A210700F14E813146059891
:104B8000FCF7ACF90B9B04460C905BF82A1053F829
:104B90002A00FBF7E5FF3146FCF7A0F92146059016
:104BA0002046FCF7E7F801464FF08040FBF7D8FFBE
:104BB000264604463046FBF72FFC6DA3D3E90023BD
:104BC000FBF782FC064620460F46FBF725FC002239
:104BD0006B4BFBF7C3FA0B46024639463046FBF7F0
:104BE00073FCFBF769FF4FF07C5106902046FCF701
:104BF000C1F8009B0BEB8A07012B0D9000F015818B
:104C000001264FF000095F4CCDF828B0B9F10B0F29
:104C100000F2BA8029460698FCF7ACF8DDF834B00B
:104C2000824641465846FCF7A5F801465046FBF738
:104C300099FF294682465846FCF79CF841460546AE
:104C40000698FCF797F801462846FBF789FFD046FF
:104C5000054609F101095FFA89F903992846FBF72E
:104C600081FF019B049918604046FBF77BFF029B84
:104C7000059918603868FBF775FF3F4B386093F86B
:104C800048309A0605D52378202B0BD00A98FFF7D9
:104C900067FE2378022B05D121E000F0B5FC48B176
:104CA00001F01EFB02F024F86378002BF5D00FB062
:104CB000BDE8F08FDDF81CA00A98514600F09CFD7D
:104CC00068B92D4B93F848309B0708D59AF80830FF
:104CD000D80604D5079B1020596804F071F9637851
:104CE000002BE4D10136009AB3B293428ED3224B0B
:104CF00093F848202378910605D5202B0FD00B98E8
:104D0000FFF72EFE2378022BD1D001F0F1FF63785C
:104D1000002BCCD100F078FC50B101F0E1FA01F0A9
:104D2000E7FF6378002BC2D100F06EFC0028F4D1BD
:104D3000079C0B98214600F05FFD0028B7D10E4B71
:104D400093F848309A07B2D5237ADB06AFD5102006
:104D5000079B59680FB0BDE8F04F04F031B900BFB0
:104D60008DEDB5A0F7C6A0BE182D4454FB21194007
:104D70004BDA7D5C5555C53FF43400200000E03F20
:104D800000001040B42D00203046FBF79FFF0C9927
:104D9000FBF7F0FF054606F0E1FC8146284606F0E9
:104DA00019FD089B82461B68494603F1004B099B8D
:104DB0005846D3F80080FBF7DDFF514605464046D4
:104DC000FBF7D8FF01462846FBF7CCFE51460546C7
:104DD0005846FBF7CFFF494682464046FBF7CAFFDD
:104DE00001465046FBF7BCFE4FF00009804634E711
:104DF000FBF712FB0EA3D3E9002306460F46FBF791
:104E0000DFFD00283FF47BAE0BA3D3E9002330463F
:104E10003946FBF7A3F96BE601463868FBF7AAFFB2
:104E200024F0080438603C72A8E6054C5FE700BF38
:104E30008DEDB5A0F7C6A03E182D4454FB211940B6
:104E4000B42D0020074B1B78022B09D010B5044667
:104E500002F03CF92046BDE81040002100F08AB97C
:104E6000704700BFB42D002010B50446FFF734FB97
:104E700044B12046FFF796FB01F03AFF0F4B5B78F9
:104E800063B110BD0420FFF78DFB0320FFF78AFB01
:104E900001F02EFF094B5B78002BF2D1FEF7F6F8FC
:104EA00000F0ACFE4FF4E052054B28205A61FDF7AC
:104EB000BBFABDE810402820FDF790BAB42D0020C1
:104EC000000401402DE9F041424C2378022B32D0FE
:104ED00015460F46064602F0F9F894F80180B8F13D
:104EE000000F25D1C5F3C00084F8058001F0AEF9AC
:104EF00001F0C0F968BBDFF8EC80237898F848200F
:104F0000900605D5202B1ED03046FFF729FD2378CB
:104F1000022B18D10123304E0220337005F04AFDD8
:104F200001E02378F3B101F0E3FE6378002BF8D0C1
:104F30000220BDE8F0810020BDE8F08100F064FBB4
:104F400048B301F0CDF901F0D3FE6378002BF5D022
:104F5000E0E7042005F042FD01F0CAFE404601F002
:104F600075F9E5E73378012B27D00123637100231E
:104F70001846337001F06AF901F0BAFE04F0D6FA6F
:104F800000F0CEFA00F03AFE02F0AAFE607900309E
:104F900018BF0120CDE73046394600F02DFC00282F
:104FA000B8D198F848309907B4D53B7ADA06B1D52C
:104FB0007968102004F004F8ACE7EB0605D5074A41
:104FC000074B07CA83E80700D1E7052005F006FD77
:104FD000CDE700BFB42D0020CA2D0020D82D002021
:104FE000CC2D0020F434002008B5154B1B78DB06CF
:104FF00000D508BD102005F0DDFC03F0DBFEFDF759
:1050000015FF104A137813F02C0F08D0042B0BD186
:105010000D4B1B787BB1BDE8084004F0AFB81279A6
:1050200012F0060FF2D1E4E7032005F0D7FCBDE84B
:10503000084004F0A3B8062005F0D0FCEBE700BF61
:10504000C92D0020B42D0020E42D00200000000018
:105050002DE9F84F0C78035D05192D2B6CD02B2B07
:105060001DD04FF0000A6C1C00273E463D46BC4652
:105070000CE00136F6B2082E16D80FB1013D6DB224
:105080000CEB8C0C03EB4C0C14F8013B303BDBB20B
:10509000092BEED9FE2B0CD15FB90127F4E74FF0B5
:1050A000000A6B78AC1CDFE7002FEDD101356DB243
:1050B000EAE7002E3DD00746604688469146FBF75A
:1050C00001FE00218346FBF7E9FF30BB691C17DABC
:1050D0002E465846FBF7A0F921A3D3E90023023658
:1050E000FBF7F2F976B2FBF7E7FC721CF2DB8346C2
:1050F000EDB2C5F1FE0303F0FE031D4402356DB2AF
:105100006B1C1ED04DB15846194E013D31466DB253
:10511000FBF730FE002DF8D18346BAF1000F01D025
:105120000BF1004B0126E41B013CC9F800B088F8E4
:1051300000403046BDE8F88FAC1C6B784FF0010A98
:1051400092E75846FBF768F907A3D3E90023FBF77A
:10515000BBF9FBF7B1FC8346DFE700BFAFF300808C
:105160007B14AE47E17A843F9A9999999999B93F0E
:105170000000204170B50E461949FBF7FBFDFBF717
:105180004BF906F0D5F8FBF777FC80B2B0B1154DBE
:105190006B789BB9441EA4B28EB14FF6FF7608E03F
:1051A000013C3220A4B2FCF7DFFCB44206D06B789D
:1051B00023B901F09FF8AB789B07F1D570BD4FF68E
:1051C000FF7602E06B78002BF8D1013C01F090FDF6
:1051D000A4B23220FCF7C8FCB442F3D170BD00BFCA
:1051E0000000A041B42D00204FF6FF7130B40B4DEC
:1051F0000B4C013880B288420DD02A68A4FB0232E1
:105200009209F6D0002300BF01339A42FBD1013846
:1052100080B28842F1D130BC704700BF0800002046
:10522000D34D621038B50D460146FBF7A3FD294664
:1052300004462846FBF79EFD01462046FBF792FCFC
:10524000BDE8384006F064BB70B50568044600212F
:105250002846FBF723FF002840D129462846FBF7C4
:1052600089FD0021FBF77EFC05466668002130467B
:10527000FBF714FF40B931463046FBF77BFD014692
:105280002846FBF76FFC0546A66800213046FBF771
:1052900005FF40B931463046FBF76CFD0146284614
:1052A000FBF760FC0546284606F032FB0646014641
:1052B0004FF07E50FBF712FE054601462068FBF7D3
:1052C00059FD294620606068FBF754FD294660605F
:1052D000A068FBF74FFDA060304670BD0025C4E715
:1052E000F8B50C680D46064600212046FBF7D6FEB1
:1052F00050B921463068FBF7F1FD20F0004420460C
:105300001549FBF7F3FE00B1134C6F6800213846D6
:10531000FBF7C4FE58B939467068FBF7DFFD20F093
:10532000004739462046FBF7C3FE00B93C46AD684E
:1053300000212846FBF7B2FE58B92946B068FBF7B2
:10534000CDFD20F0004528462146FBF7CFFE00B9F1
:105350002C462046F8BD00BFFFFF7F7F2DE9F04FB0
:105360006B4B83B01B780193002B00F0BA805C1E5E
:10537000E4B2684B93F80080A04500F0AF8034267B
:10538000654D06FB0456F169B7690846FBF7EAFB71
:10539000316AFBF7EFFC064601463846FBF788FE0C
:1053A00000B13E46342303FB04535E61002C00F041
:1053B0009A80631E5FFA83FB584BD845197800F03A
:1053C000998034275E4607FB045427E0013EF6B27D
:1053D000B1422BD007FB0959D9F818B0D9F81400FD
:1053E0005946FBF75BFEA0B9D9F81C100846FBF73D
:1053F000B9FBD9F82010FBF7BDFC6169FBF7B2FBE4
:10540000044601465846FBF771FE00287DD0C9F8D6
:105410001440464510D05446404B1978B14607FB1E
:10542000065A002ED2D1C726B142D3D104F06CF96E
:10543000384B93F80080CDE7B346354B1B7801938A
:105440004FF034080BF10104E4B2C82C08BF00246B
:1054500008FB0B5ACDF800804FF0000935E0009BA7
:10546000DAF8148003FB04577E6940463146FBF7A7
:105470001FFEB8B1DAF81C100846FBF773FBDAF828
:105480002010FBF777FC4146FBF76CFB804601469A
:105490003046FBF72BFE28B14646A3464FF00109E4
:1054A000C7F81480009B314603FB04539869FBF74F
:1054B000F5FD631C002818BFA346DCB218BF4FF0EF
:1054C0000109C82CBA4608BF0024019B9C42C6D1E2
:1054D000B9F1000F02D00F4B83F800B003B0BDE864
:1054E000F08FC72445E74FF0C70B0C4BD845197810
:1054F0007FF467AF8B45A3D104F006F9044B1B780A
:105500000193044B93F800B09AE7C9F814B080E710
:105510003C2900203D2900209C0000203E2900203D
:105520000023012030B4094A0949C2E900330B7055
:10553000C2E902330749C2E90433074D074C9361BE
:1055400008702B70237030BC704700BF40290020CA
:105550003E2900203F2900203C2900203D29002031
:105560000A490B4B0A781B7893420DD0531CDBB2CF
:10557000C82B08BF002310B406480B70047894426F
:1055800008BF037010BC7047704700BF3E29002061
:105590003C2900203D2900203420034A034B127887
:1055A00000FB0230704700BF3C2900209C00002017
:1055B000054B064A1B7812789A421DBF34220448D4
:1055C00002FB0300002070473E2900203C290020F8
:1055D0009C000020094B0A4A1B7812780133DBB289
:1055E000C82B08BF00239A4205D03421054A01FB8D
:1055F0000323586970470020704700BF3E290020F0
:105600003C2900209C000020044A054B10781B78A0
:10561000C01AB0FA80F04009704700BF3E29002050
:105620003F29002000000000F8B5437CC46ADA0777
:1056300020D5254B587AFAF7DDFE21A3D3E90023C4
:10564000FAF742FF064620460F46FAF7E5FE024605
:105650000B4630463946FAF737FFFBF72DFA04467A
:105660004FF07E512046FBF741FD08B94FF07E54C4
:105670002046F8BD5B07054616D4134B187AFAF797
:10568000B9FE0FA3D3E90023FAF71EFF0646204612
:105690000F46FAF7C1FE02460B4630463946FAF786
:1056A00013FFFBF709FA0446AD6A21462846FBF7CB
:1056B000FFFC0028D4D02C46D2E700BFAFF3008017
:1056C0007B14AE47E17A843FB42D00200000000037
:1056D0002DE9F04F424A434B127887B0424901927C
:1056E0001A7A5B7A0C7805920493404E4FF0340A94
:1056F000DFF800B14FF07E5934E00498FAF77AFEF3
:1057000035A3D3E90023FAF7DFFECDE902013846DD
:10571000FAF782FE02460B46DDE90201FAF7D4FEF3
:10572000FBF7CAF9804649464046FBF7DFFC00B963
:10573000C846414630466F6AFBF7BAFC002840D0A5
:1057400031463046FBF716FB064631463846FBF736
:10575000AFFC002833D1AE610134E4B2C82C08BFDD
:1057600000244646019BA34231D00AFB04B56B7C62
:10577000EF6ADA07C1D45B0715D40598FAF73AFE49
:1057800015A3D3E90023FAF79FFECDE902013846BD
:10579000FAF742FE02460B46DDE90201FAF794FEF3
:1057A000FBF78AF907460AFB04B3D3F82880394689
:1057B0004046FBF77DFC0028B5D1B846B3E7AF61A2
:1057C000CAE741464046FBF7D5FA0646BDE7084B17
:1057D0009E6107B0BDE8F08F7B14AE47E17A843F4D
:1057E0003C290020B42D00203E290020FFFF7F7FB0
:1057F000402900209C00002034222DE9F04F0C4667
:10580000A14B83461B78A1488FB002FB030A01918C
:1058100050460021009305F070F9237A62688AF8F7
:1058200011309B074CBF9A4B9A4BCAF830200DF1B0
:10583000140893E8070088E80700009A342311460B
:1058400057460025914A944E03FB0129ABF1040B06
:105850005BF8041F3068FBF78DFAFAF7DDFD05F001
:1058600073FE58F8253002AA42F82500C01A80EAD3
:10587000E074A4EBE07447F8044BD9F80C309C4278
:1058800038BF1C46C9F80C40FBF720FA56F8041B39
:10589000FBF724FB08AB002143F82500FBF708FCCD
:1058A00038B17E4A99F8103012F81520134389F860
:1058B00010300135032DCBD11CB920460FB0BDE807
:1058C000F08F08A8FFF7C0FC009B34241A466F4BEA
:1058D00008A904FB023420627148FFF701FD08A902
:1058E000E0617048FFF7FCFC657CA062EF0772D5B1
:1058F000E0626D4B644A1B7812789A4201D0AC0783
:1059000076D5009A34231146604A03FB0123002216
:105910005A615A62009A342311465C4A03FB012300
:105920005A7C900760D4D107DE6A40F1C5805F4B96
:10593000587AFAF75FFD50A3D3E90023FAF7C4FDC4
:10594000044630460D46FAF767FD02460B462046F0
:105950002946FAF7B9FDFBF7AFF806464FF07E513E
:105960003046FBF7C3FB08B94FF07E56494C314631
:10597000A769DAF824503846FBF79AFB002800F0B4
:10598000C78039463846FBF7F5F9074629463846B9
:10599000FBF7ACFB002840F0B880CAF81870444A06
:1059A00039481178434D4B1CDBB2C82B08BF00238C
:1059B000137008AB017093E8070002ABA66185E89D
:1059C000070093E8070084E80700FFF7C7FC012001
:1059D0000FB0BDE8F08F019B2E071968E16288D5F2
:1059E000206AFBF7C7F983E701200FB0BDE8F08F0D
:1059F000284C089DE66828463146FBF7BBF901466E
:105A00000020FBF7ADF8314607462846FBF7A8F81B
:105A10002669099D31460B902846FBF7ABF90146F4
:105A20003846FBF79DF8314607462846FBF798F8BD
:105A300064690A9D0C9021462846FBF791F8294697
:105A40000D902046FBF796F901463846FBF788F89B
:105A5000FAF7E2FC0AA3D3E9002306460F46FAF759
:105A6000C3FF00285AD0009A34231146074A03FB8B
:105A7000012300225A624DE77B14AE47E17A843F4E
:105A8000E90B21E7FDFFEF3F3C2900209C000020AF
:105A9000D82D002040290020F4340020F4CC000848
:105AA00064350020003500203E290020B42D002060
:105AB0003F2900204C290020530716D4484B187A60
:105AC000FAF798FC42A3D3E90023FAF7FDFC044659
:105AD00030460D46FAF7A0FC02460B462046294602
