:020000040800F2
:10000000005000203DA9000819A900081DA90008FA
:1000100021A9000825A9000829A90008000000005E
:100020000000000000000000000000002DA90008F2
:1000300031A900080000000035A900088DA90008BA
:100040008DA900088DA900088DA900088DA90008B8
:100050008DA900088DA900088DA900088DA90008A8
:100060008DA900088DA900088DA900088DA9000898
:100070008DA900088DA900088DA900088DA9000888
:100080008DA900088DA900088DA900088DA9000878
:1000900039A900088DA900088DA900084D8F000816
:1000A0008DA900088DA900088DA900088DA9000858
:1000B000117C0008757E00088DA900088DA9000834
:1000C0008DA900088DA900088DA900088DA9000838
:1000D0008DA900088DA900088DA900088DA9000828
:1000E000A12F00088DA900088DA9000800000000BC
:1000F0000000000000000000000000000000000000
:0C01000000000000000000005FF808F1A3
:1001100010B5054C237833B9044B13B10448AFF341
:1001200000800123237010BD50010020000000005A
:1001300000BE000808B5034B1BB103490348AFF3E9
:10014000008008BD000000005401002000BE00082F
:1001500081F0004102E000BF83F0004330B54FEA78
:1001600041044FEA430594EA050F08BF90EA020FE5
:100170001FBF54EA000C55EA020C7FEA645C7FEA78
:10018000655C00F0E2804FEA5454D4EB5555B8BF9B
:100190006D420CDD2C4480EA020281EA030382EA0C
:1001A000000083EA010180EA020281EA0303362D9E
:1001B00088BF30BD11F0004F4FEA01314FF4801C71
:1001C0004CEA113102D0404261EB410113F0004F83
:1001D0004FEA03334CEA133302D0524263EB43033A
:1001E00094EA050F00F0A780A4F10104D5F1200ED8
:1001F0000DDB02FA0EFC22FA05F2801841F1000133
:1002000003FA0EF2801843FA05F359410EE0A5F106
:1002100020050EF1200E012A03FA0EFC28BF4CF037
:10022000020C43FA05F3C01851EBE37101F00045ED
:1002300007D54FF0000EDCF1000C7EEB00006EEBFA
:100240000101B1F5801F1BD3B1F5001F0CD3490884
:100250005FEA30004FEA3C0C04F101044FEA4452DB
:1002600012F5800F80F09A80BCF1004F08BF5FEA62
:10027000500C50F1000041EB045141EA050130BD42
:100280005FEA4C0C404141EB010111F4801FA4F1E5
:100290000104E9D191F0000F04BF01460020B1FA3A
:1002A00081F308BF2033A3F10B03B3F120020CDA72
:1002B0000C3208DD02F1140CC2F10C0201FA0CF050
:1002C00021FA02F10CE002F11402D8BFC2F1200CB5
:1002D00001FA02F120FA0CFCDCBF41EA0C0190406B
:1002E000E41AA2BF01EB0451294330BD6FEA0404B4
:1002F0001F3C1CDA0C340EDC04F11404C4F120029F
:1003000020FA04F001FA02F340EA030021FA04F3B0
:1003100045EA030130BDC4F10C04C4F1200220FA07
:1003200002F001FA04F340EA0300294630BD21FA45
:1003300004F0294630BD94F0000F83F4801306BF0B
:1003400081F480110134013D4EE77FEA645C18BFFF
:100350007FEA655C29D094EA050F08BF90EA020F96
:1003600005D054EA000C04BF1946104630BD91EA8E
:10037000030F1EBF0021002030BD5FEA545C05D191
:100380004000494128BF41F0004130BD14F58004D0
:100390003CBF01F5801130BD01F0004545F0FE4144
:1003A00041F470014FF0000030BD7FEA645C1ABF79
:1003B000194610467FEA655C1CBF0B46024650EAB0
:1003C000013406BF52EA033591EA030F41F40021DC
:1003D00030BD00BF90F0000F04BF0021704730B562
:1003E0004FF4806404F132044FF000054FF0000137
:1003F00050E700BF90F0000F04BF0021704730B5F8
:100400004FF4806404F1320410F0004548BF4042CC
:100410004FF000013EE700BF42004FEAE2014FEA21
:1004200031014FEA02701FBF12F07F4393F07F4FFC
:1004300081F06051704732F07F4208BF704793F0FF
:100440007F4F04BF41F40021704730B54FF4607412
:1004500001F0004521F000411CE700BF50EA010215
:1004600008BF704730B54FF000050AE050EA0102BE
:1004700008BF704730B511F0004502D5404261EB2E
:1004800041014FF4806404F132045FEA915C3FF46F
:10049000D8AE4FF003025FEADC0C18BF03325FEA0C
:1004A000DC0C18BF033202EBDC02C2F1200300FABD
:1004B00003FC20FA02F001FA03FE40EA0E0021FAE2
:1004C00002F11444BDE600BF70B54FF0FF0C4CF4D0
:1004D000E06C1CEA11541DBF1CEA135594EA0C0F82
:1004E00095EA0C0F00F0DEF82C4481EA030621EABD
:1004F0004C5123EA4C5350EA013518BF52EA0335F8
:1005000041F4801143F4801338D0A0FB02CE4FF0A9
:100510000005E1FB02E506F00042E0FB03E54FF0D9
:100520000006E1FB03569CF0000F18BF4EF0010ED1
:10053000A4F1FF04B6F5007F64F5407404D25FEACD
:100540004E0E6D4146EB060642EAC62141EA555180
:100550004FEAC52040EA5E504FEACE2EB4F1FD0CC2
:1005600088BFBCF5E06F1ED8BEF1004F08BF5FEA40
:10057000500E50F1000041EB045170BD06F00046F2
:1005800046EA010140EA020081EA0301B4EB5C049F
:10059000C2BFD4EB0C0541EA045170BD41F4801197
:1005A0004FF0000E013C00F3AB8014F1360FDEBFBC
:1005B000002001F0004170BDC4F10004203C35DA98
:1005C0000C341BDC04F11404C4F1200500FA05F31B
:1005D00020FA04F001FA05F240EA020001F00042BC
:1005E00021F0004110EBD37021FA04F642EB060132
:1005F0005EEA430E08BF20EAD37070BDC4F10C045C
:10060000C4F1200500FA04F320FA05F001FA04F21F
:1006100040EA020001F0004110EBD37041F100010B
:100620005EEA430E08BF20EAD37070BDC4F1200516
:1006300000FA05F24EEA020E20FA04F301FA05F27E
:1006400043EA020321FA04F001F0004121FA04F226
:1006500020EA020000EBD3705EEA430E08BF20EAF6
:10066000D37070BD94F0000F0FD101F00046400030
:1006700041EB010111F4801F08BF013CF7D041EAB2
:10068000060195F0000F18BF704703F000465200B6
:1006900043EB030313F4801F08BF013DF7D043EA87
:1006A0000603704794EA0C0F0CEA135518BF95EA3D
:1006B0000C0F0CD050EA410618BF52EA4306D1D1C4
:1006C00081EA030101F000414FF0000070BD50EAE3
:1006D000410606BF1046194652EA430619D094EA6D
:1006E0000C0F02D150EA013613D195EA0C0F05D157
:1006F00052EA03361CBF104619460AD181EA0301AB
:1007000001F0004141F0FE4141F470014FF0000062
:1007100070BD41F0FE4141F4780170BD70B54FF0FD
:10072000FF0C4CF4E06C1CEA11541DBF1CEA13557D
:1007300094EA0C0F95EA0C0F00F0A7F8A4EB05045F
:1007400081EA030E52EA03354FEA013100F0888056
:100750004FEA03334FF0805545EA131343EA12631F
:100760004FEA022245EA111545EA10654FEA0026D4
:100770000EF000419D4208BF964244F1FD0404F58D
:10078000407402D25B084FEA3202B61A65EB0305E9
:100790005B084FEA32024FF480104FF4002CB6EBA6
:1007A000020E75EB030E22BFB61A754640EA0C0026
:1007B0005B084FEA3202B6EB020E75EB030E22BF66
:1007C000B61A754640EA5C005B084FEA3202B6EBA7
:1007D000020E75EB030E22BFB61A754640EA9C0066
:1007E0005B084FEA3202B6EB020E75EB030E22BF36
:1007F000B61A754640EADC0055EA060E18D04FEAF4
:10080000051545EA16754FEA06164FEAC30343EA93
:1008100052734FEAC2025FEA1C1CC0D111F4801F60
:100820000BD141EA00014FF000004FF0004CB6E759
:1008300011F4801F04BF01430020B4F1FD0C88BFF8
:10084000BCF5E06F3FF6AFAEB5EB030C04BFB6EB03
:10085000020C5FEA500C50F1000041EB045170BDF6
:100860000EF0004E4EEA113114EB5C04C2BFD4EB23
:100870000C0541EA045170BD41F480114FF0000EA7
:10088000013C90E645EA060E8DE60CEA135594EA23
:100890000C0F08BF95EA0C0F3FF43BAF94EA0C0F26
:1008A0000AD150EA01347FF434AF95EA0C0F7FF49B
:1008B00025AF104619462CE795EA0C0F06D152EAEF
:1008C00003353FF4FDAE1046194622E750EA4106D3
:1008D00018BF52EA43067FF4C5AE50EA41047FF4E4
:1008E0000DAF52EA43057FF4EBAE12E74FF0FF3C49
:1008F00006E000BF4FF0010C02E000BF4FF0010C1A
:100900004DF804CD4FEA410C7FEA6C5C4FEA430C92
:1009100018BF7FEA6C5C1BD001B050EA410C0CBFE1
:1009200052EA430C91EA030F02BF90EA020F002043
:10093000704710F1000F91EA030F58BF994208BFAA
:1009400090422CBFD8176FEAE37040F00100704767
:100950004FEA410C7FEA6C5C02D150EA013C07D1BE
:100960004FEA430C7FEA6C5CD6D152EA033CD3D009
:100970005DF8040B704700BF8446104662468C4603
:100980001946634600E000BF01B5FFF7B7FF002836
:1009900048BF10F1000F01BD4DF808EDFFF7F4FF5F
:1009A0000CBF012000205DF808FB00BF4DF808EDEA
:1009B000FFF7EAFF34BF012000205DF808FB00BF0D
:1009C0004DF808EDFFF7E0FF94BF012000205DF82F
:1009D00008FB00BF4DF808EDFFF7CEFF94BF0120E4
:1009E00000205DF808FB00BF4DF808EDFFF7C4FFDD
:1009F00034BF012000205DF808FB00BF4FEA410230
:100A0000B2F1E04324BFB3F5001CDCF1FE5C0DD96C
:100A100001F0004C4FEAC0024CEA5070B2F1004FB6
:100A200040EB830008BF20F00100704711F0804FB9
:100A300021D113F13872BCBF01F00040704741F47E
:100A400080114FEA5252C2F11802C2F1200C10FA82
:100A50000CF320FA02F018BF40F001004FEAC12366
:100A60004FEAD32303FA0CFC40EA0C0023FA02F30A
:100A70004FEA4303CCE77FEA625307D150EA0133E0
:100A80001EBF4FF0FE4040F44000704701F00040B0
:100A900040F0FE4040F40000704700BF80F000408E
:100AA00002E000BF81F0004142001FBF5FEA410346
:100AB00092EA030F7FEA226C7FEA236C6AD04FEA46
:100AC0001262D2EB1363C1BFD2184140484041408B
:100AD000B8BF5B42192B88BF704710F0004F40F43D
:100AE000000020F07F4018BF404211F0004F41F459
:100AF000000121F07F4118BF494292EA030F3FD025
:100B0000A2F1010241FA03FC10EB0C00C3F1200337
:100B100001FA03F100F0004302D5494260EB4000C6
:100B2000B0F5000F13D3B0F1807F06D340084FEA31
:100B3000310102F10102FE2A51D2B1F1004F40EB26
:100B4000C25008BF20F0010040EA0300704749008E
:100B500040EB000010F4000FA2F10102EDD1B0FA59
:100B600080FCACF1080CB2EB0C0200FA0CF0AABF4E
:100B700000EBC25052421843BCBFD04018437047EC
:100B800092F0000F81F4000106BF80F400000132F2
:100B9000013BB5E74FEA41037FEA226C18BF7FEAC9
:100BA000236C21D092EA030F04D092F0000F08BF0B
:100BB0000846704790EA010F1CBF0020704712F0F2
:100BC0007F4F04D1400028BF40F00040704712F131
:100BD00000723CBF00F50000704700F0004343F096
:100BE000FE4040F4000070477FEA226216BF0846CC
:100BF0007FEA23630146420206BF5FEA412390EA8F
:100C0000010F40F4800070474FF0000304E000BF84
:100C100010F0004348BF40425FEA000C08BF704735
:100C200043F0964301464FF000001CE050EA0102F9
:100C300008BF70474FF000030AE000BF50EA01020E
:100C400008BF704711F0004302D5404261EB4101FB
:100C50005FEA010C02BF84460146002043F0B64320
:100C600008BFA3F18053A3F50003BCFA8CF2083A45
:100C7000A3EBC25310DB01FA02FC634400FA02FC4E
:100C8000C2F12002BCF1004F20FA02F243EB020055
:100C900008BF20F00100704702F1200201FA02FCB7
:100CA000C2F1200250EA4C0021FA02F243EB0200AA
:100CB00008BF20EADC7070474FF0FF0C1CEAD052EE
:100CC0001EBF1CEAD15392EA0C0F93EA0C0F6FD0AF
:100CD0001A4480EA010C400218BF5FEA41211ED08D
:100CE0004FF0006343EA501043EA5111A0FB013179
:100CF0000CF00040B1F5000F3EBF490041EAD3714E
:100D00005B0040EA010062F17F02FD2A1DD8B3F1C9
:100D1000004F40EBC25008BF20F00100704790F038
:100D2000000F0CF0004C08BF49024CEA502040EA8A
:100D300051207F3AC2BFD2F1FF0340EAC250704750
:100D400040F400004FF00003013A5DDC12F1190F8E
:100D5000DCBF00F000407047C2F10002410021FA00
:100D600002F1C2F1200200FA02FC5FEA310040F118
:100D7000000053EA4C0308BF20EADC70704792F091
:100D8000000F00F0004C02BF400010F4000F013AC9
:100D9000F9D040EA0C0093F0000F01F0004C02BFC4
:100DA000490011F4000F013BF9D041EA0C018FE733
:100DB0000CEAD15392EA0C0F18BF93EA0C0F0AD039
:100DC00030F0004C18BF31F0004CD8D180EA01005F
:100DD00000F00040704790F0000F17BF90F0004FF8
:100DE000084691F0000F91F0004F14D092EA0C0FDA
:100DF00001D142020FD193EA0C0F03D14B0218BF6D
:100E0000084608D180EA010000F0004040F0FE40B2
:100E100040F40000704740F0FE4040F4400070474E
:100E20004FF0FF0C1CEAD0521EBF1CEAD15392EACD
:100E30000C0F93EA0C0F69D0A2EB030280EA010CBD
:100E400049024FEA402037D04FF0805343EA111156
:100E500043EA10130CF000408B4238BF5B0042F1B4
:100E60007D024FF4000C8B4224BF5B1A40EA0C0059
:100E7000B3EB510F24BFA3EB510340EA5C00B3EB8B
:100E8000910F24BFA3EB910340EA9C00B3EBD10F79
:100E900024BFA3EBD10340EADC001B0118BF5FEACB
:100EA0001C1CE0D1FD2A3FF650AF8B4240EBC250F4
:100EB00008BF20F0010070470CF0004C4CEA5020B5
:100EC0007F32C2BFD2F1FF0340EAC250704740F404
:100ED00000004FF00003013A37E792F0000F00F0F6
:100EE000004C02BF400010F4000F013AF9D040EA74
:100EF0000C0093F0000F01F0004C02BF490011F408
:100F0000000F013BF9D041EA0C0195E70CEAD153FF
:100F100092EA0C0F08D142027FF47DAF93EA0C0FE6
:100F20007FF470AF084676E793EA0C0F04D14B02CA
:100F30003FF44CAF08466EE730F0004C18BF31F07C
:100F4000004CCAD130F000427FF45CAF31F0004376
:100F50007FF43CAF5FE700BF4FF0FF3C06E000BF0F
:100F60004FF0010C02E000BF4FF0010C4DF804CD32
:100F70004FEA40024FEA41037FEA226C18BF7FEA42
:100F8000236C11D001B052EA530C18BF90EA010F44
:100F900058BFB2EB030088BFC81738BF6FEAE170D3
:100FA00018BF40F0010070477FEA226C02D15FEA6F
:100FB000402C05D17FEA236CE4D15FEA412CE1D0DB
:100FC0005DF8040B704700BF844608466146FFE7A2
:100FD0000FB5FFF7C9FF002848BF10F1000F0FBD84
:100FE0004DF808EDFFF7F4FF0CBF012000205DF87D
:100FF00008FB00BF4DF808EDFFF7EAFF34BF012002
:1010000000205DF808FB00BF4DF808EDFFF7E0FF9A
:1010100094BF012000205DF808FB00BF4DF808EDEB
:10102000FFF7D2FF94BF012000205DF808FB00BF4E
:101030004DF808EDFFF7C8FF34BF012000205DF830
:1010400008FB00BF4FEA40024FEA41037FEA226CEF
:1010500002D15FEA402C08D17FEA236C02D15FEA1B
:10106000412C02D14FF0000070474FF00100704753
:101070004FEA4002B2F1FE4F0FD34FF09E03B3EBA5
:1010800012620DD94FEA002343F0004310F0004FE5
:1010900023FA02F018BF404270474FF0000070473B
:1010A00012F1610F01D1420205D110F0004008BFDA
:1010B0006FF0004070474FF00000704742000ED2C2
:1010C000B2F1FE4F0BD34FF09E03B3EB126209D483
:1010D0004FEA002343F0004323FA02F070474FF039
:1010E0000000704712F1610F01D1420202D14FF0AE
:1010F000FF3070474FF00000704700BF40F0BF6006
:10110000024B40F40030D860704700BF00ED00E0B3
:10111000F0B401240178C37801F01F0294404E0915
:101120002BB90F4B203643F82640F0BC70470D4BCF
:101130004778DD688278E8430F23C0F30220C0F1CE
:101140000405C34007FA05F513402B43044A1B016D
:10115000DBB2114481F8003342F82640F0BC7047FE
:1011600000E100E000ED00E0037970B482790568E9
:1011700003F1804303F58233EC431AB3184A4179F3
:101180001668102906EA04061660566804EA060482
:1011900054601C6845EA04051D60006894686FEAA5
:1011A000000304EA03049460D46803EA0403D360F0
:1011B0000DD070BC01F1804303F582331A681043EF
:1011C000186070471A6814401C6070BC70479368C0
:1011D00070BC03439360D3681843D060704700BF6E
:1011E00000040140054B1A685B69034004D00242C9
:1011F00014BF0120002070471846704700040140CA
:10120000014B5861704700BF00040140024B034985
:10121000034A59605A607047002002402301674525
:10122000AB89EFCD324A10B4D368DC0726D4D3683B
:10123000590740D4D368DB0602D5032010BC7047A1
:101240002B4B1A6942F002021A6158611A6942F086
:1012500040021A61DA68D1072FD4DA68520745D400
:10126000DB6813F0100F0CBF0420032041F6FD7162
:101270001F4A10BC13690B40136170474FF43023B1
:10128000D468591EE4070AD4D468640711D4D2681C
:10129000D40608D4012BD3D1052010BC70470B46CF
:1012A0000029EDD1F8E70320002908BF052010BC74
:1012B00070470220F8E70220EFE74FF43022D968A8
:1012C000013ACC070CD4D96849070DD4DB6813F078
:1012D000100F14BF03200420002A08BF0520C5E713
:1012E000002AECD10520C1E70220F5E70220BDE786
:1012F00000200240304A30B4D368DD0722D4D368DE
:101300005C073CD4D368DB0602D530BC03207047B1
:10131000294A136943F0010313610180D368DB0795
:101320002FD4D3685D0745D4D36813F0100F0CBFDA
:101330000420032030BC41F6FE711F4A13690B40A4
:10134000136170474FF40053D5685C1EED070AD453
:10135000D5686D0711D4D268D20608D4012BD7D135
:10136000052030BC70472346002CEDD1F8E7032060
:10137000002C08BF052030BC70470220F8E702208F
:10138000EFE74FF40053D168013BCC070CD4D16890
:1013900049070DD4D26812F0100F14BF03200420A7
:1013A000002B08BF0520C5E7002BECD10520C1E7C5
:1013B0000220F5E70220BDE70020024030B4CC78DF
:1013C000E30648BF8B7804F00F0548BF1D430B8828
:1013D00013F0FF0F33D0482C026800F0F480282C63
:1013E00000F03381D90744BF22F00F022A43990746
:1013F00044BF22F0F00242EA0512590744BF22F42A
:10140000706242EA0522190744BF22F4704242EAA0
:101410000532D90644BF22F4702242EA05429906F9
:1014200044BF22F4700242EA0552590644BF22F03A
:10143000706242EA0562190600F104810260FF2B26
:101440004BD9282C42684AD0482C40F08E80D905D0
:1014500005D54FF4807122F00F022A4301619C05EB
:1014600006D54FF4007122F0F00242EA0512016144
:10147000590506D54FF4806122F4706242EA0522D4
:1014800001611C0506D54FF4006122F4704242EA66
:1014900005320161D90406D54FF4805122F470223F
:1014A00042EA054201619C0406D54FF4005122F442
:1014B000700242EA05520161590406D54FF4804199
:1014C00022F0706242EA056201611C0404D54FF407
:1014D000004365F31F720361426030BC7047D90559
:1014E00005D54FF4807122F00F022A4341619C051B
:1014F00006D54FF4007122F0F00242EA0512416174
:10150000590506D54FF4806122F4706242EA052243
:1015100041611C0506D54FF4006122F4704242EA95
:1015200005324161D90406D54FF4805122F470226E
:1015300042EA054241619C0406D54FF4005122F471
:10154000700242EA05524161590406D54FF48041C8
:1015500022F0706242EA056241611B04BCD54FF47F
:10156000004365F31F724361B6E7D90544BF22F01B
:101570000F022A439C0544BF22F0F00242EA051202
:10158000590544BF22F4706242EA05221C0544BF9B
:1015900022F4704242EA0532D90444BF22F4702298
:1015A00042EA05429C0444BF22F4700242EA05521A
:1015B000590444BF22F0706242EA05621C048BD5D4
:1015C00065F31F7288E7D90704D5012122F00F02C5
:1015D0002A430161990705D5022122F0F00242EA6F
:1015E00005120161590705D5042122F4706242EA0F
:1015F00005220161190705D5082122F4704242EA4B
:1016000005320161D90605D5102122F4702242EA83
:1016100005420161990605D5202122F4700242EAB3
:1016200005520161590605D5402122F0706242EA57
:101630000562016119067FF501AF802165F31F7214
:101640000161FBE665F31F72F8E6D90704D50121B5
:1016500022F00F022A434161990705D5022122F0A9
:10166000F00242EA05124161590705D5042122F42E
:10167000706242EA05224161190705D5082122F46A
:10168000704242EA05324161D90605D5102122F4A3
:10169000702242EA05424161990605D5202122F4D3
:1016A000700242EA05524161590605D5402122F0F7
:1016B000706242EA0562416119067FF5BFAE802182
:1016C00065F31F724161B9E6806880B2704700BF60
:1016D000C06880B2704700BF0161704741617047C8
:1016E0000AB9416170470161704700BF0028194B7A
:1016F00000F44012B4BFDB695B68B2F5401F30B440
:1017000084B21ED0C20213D50322C0F30345AA40FF
:1017100023EA020343F0706319B1420D12019440B1
:1017200023430C4A0028B4BFD361536030BC7047D8
:10173000420D120104FA02F223EA020343F070633D
:10174000EAE7044D23F070636A6822F070626A6011
:10175000E2E700BF0000014010B40F2401F0FC03D9
:1017600003F1804303F5803301F003019A68890097
:101770008C4022EA04029A609A6800FA01F111434F
:10178000996010BC704700BF014B1860704700BFE4
:10179000D8004242044A936919B923EA00009061D3
:1017A000704718439061704700100240044AD369A3
:1017B00019B923EA0000D06170471843D06170471F
:1017C00000100240274A0388904270B49BB212D0A6
:1017D00002F5006290420ED0B0F1804F0BD0A2F51E
:1017E0009832904207D002F58062904203D002F511
:1017F0008062904203D14A8823F0700313431A4D4C
:101800008C88A8420A8815D005F58065A84211D0B9
:10181000CE8823F440739BB205F58C353343A84240
:101820000380848502850CD170BC0B7A038601236A
:1018300083827047038084850285012370BC838284
:1018400070470A4B9842EFD003F540639842EBD0C3
:1018500003F580639842E7D003F580639842E3D0B4
:10186000EBE700BF002C01400010004000340140B5
:10187000038CF0B423F001031B041B0C0D890384BB
:10188000028C4E8822F0020284881204038B3543B6
:10189000120C23F073032A43164D1B040E881B0CF5
:1018A000A842A4B243EA06030FD005F50065A8429A
:1018B0000BD005F54065A84207D005F58065A84224
:1018C00003D005F58065A8420DD14E8922F00802AB
:1018D0008D89CF8932438E8824F4407422F004022B
:1018E0003D4332432C43C98884800383F0BC818606
:1018F00002847047002C014000234FF6FF72036002
:1019000042600372704700BF038829B923F00103C6
:101910001B041B0C0380704743F0010303807047D6
:10192000B0F8443021B9C3F30E03A0F84430704737
:1019300043F40043A0F84430704700BF83891AB9CC
:1019400023EA01018181704719438181704700BFFB
:10195000038B23F008031B041B0C194301837047FE
:10196000C94389B2018270472DE9F041082710254B
:101970004FF0030882B0154C0DEB070638460121E5
:10198000FFF708FF26F8047D314620468DF80680D3
:101990008DF80750FFF712FD38460121FFF7FAFED8
:1019A000314620468DF806808DF80750ADF804507A
:1019B000FFF704FD39462046FFF790FE29462046F2
:1019C000FFF78CFE02B0BDE8F08100BF000C0140C3
:1019D00010B50748FFF77CFEC0F3C0040448FFF7CA
:1019E00077FEC30648BF44F00204204610BD00BF86
:1019F000000C014010B5054C08212046FFF76EFE93
:101A00002046BDE810401021FFF768BE000C0140E1
:101A100038B50F4D6B783BB9044630B142060DD452
:101A2000230610D400232B7338BD08210948FFF783
:101A300055FE10210748FFF751FEF3E7082105483E
:101A4000FFF74AFEECE710210248FFF745FEE9E701
:101A5000440F0020000C014038B5124C2378022BB3
:101A600004D0054604F00EF8637803B138BD35B1F3
:101A70006A060DD42B0610D40023237338BD082129
:101A80000948FFF72BFE10210748FFF727FEF3E771
:101A900008210548FFF720FEECE710210248FFF778
:101AA0001BFEE9E7440F0020000C014010B40D4C70
:101AB0002346C4F1006101F5FE3104F580605A1837
:101AC000127803F8012B8342F9D123780A2B06D030
:101AD0004FF48062FF21034810BC08F08CBF10BC9B
:101AE000704700BFBC0A0020014B185C704700BF64
:101AF000BC0A0020014B1954704700BFBC0A0020EB
:101B00002DE9F0410746002A3FD00023204D01383F
:101B100028448E1811F8014B7BB904EBD3138E4285
:101B2000DBB200F8014FF5D117441A48EB55FFF727
:101B300079FB042808D0BDE8F081631C8E4200F8D0
:101B4000014FDBB2E6D1EFE7114C134FC5F1006650
:101B500004F580687F1B06F5FE3625464FF6FF73B9
:101B600035F8021BA019994204F1040401D0FFF7D3
:101B7000C1FB4FF6FF732988E019994201D0FFF7A6
:101B8000B9FB4445E9D1BDE8F0811346004DCCE7EF
:101B9000BC0A002000FC0108FEFB0108F0B4F2B111
:101BA0000024104F4D1E3D44861815F8013F74B9AE
:101BB00000F8013B03EBD4148642E4B2F5D11144A2
:101BC000785C001BB0FA80F0F0BC4009704700F868
:101BD000013B864203F10103DCB2E6D1EFE7144694
:101BE000004FEDE7BC0A002008B500214422074859
:101BF00008F001FF0649002005F044FB00B108BDD4
:101C00000720BDE8084004F013BA00BFBC0E002056
:101C1000E40E00200149024807F09CBB680F002039
:101C2000D80E00202DE9F04F0646DFF8F88140225B
:101C300000219BB0404608F0DEFE784B03CB1C88A9
:101C40009A78C8F80100C8F80510A8F8094088F883
:101C50000B203378242B00F0CF8100220A9200273A
:101C6000B45C8DF84B203D460997CDE90777DFF846
:101C7000B891002C00F0F380A4F14103192B00F27D
:101C80000883531C0DF14B0113AA30468DF84B30DD
:101C900001F050FF002800F00183DDF84CB05846F9
:101CA00008F0E0FFFFF70AFA5FFA80FA5046FEF705
:101CB000AFFF01465846FEF7F5FE4946FEF7FCFF2A
:101CC00008F066FF472C82B228D04D2C40F08B8064
:101CD000002A40F0FD82BAF11E0F00F28881012334
:101CE0004F4A03FA0AF3134240F0A08013F4607FD6
:101CF00040F04D8113F0380F00F07981BAF1040FF4
:101D000000F0D882BAF1050F00F0DB82BAF1030FC0
:101D100000F0B8824FF480520C2394E0BAF15E0FC9
:101D200000F26581DFE81AF0BB01BB01BB01BB011A
:101D3000FF0163016301630163016301DA01630170
:101D4000630163016301630163019E019E019E01C2
:101D5000F901F90163016301630163016301630137
:101D6000DA016301DA016301630163016301630165
:101D700063016301BB016301780163016301A40195
:101D800063016301630163016301A40163016301F2
:101D90006301FF01B501B501B501B501B501B5019B
:101DA00063018601630163016301630163016301F0
:101DB0006301630163016301630163016301630103
:101DC00063016301630163018A01630163016301CC
:101DD0006301630163016301630163018F018F018B
:101DE000DA0198019801463C142C00F20081DFE8EA
:101DF00014F0E701FE00FE00D301DD01A401F801AB
:101E0000FE00FD01FE000502FE000B021102180299
:101E1000FE00FE00FE0025023002B301BC0E0020D1
:101E200007000040000F00200000C842BAF1000F78
:101E300000F0EB80BAF1010F00F0B9804FF40062BE
:101E40000B2388F808A045FA03F3D90700F156825E
:101E500015439DF84B20B45C002C7FF40DAF079B1D
:101E600023B1089B002B08BF02230893BA0605D5AF
:101E7000C34BD8F820209A4200F35D820A9B002BC6
:101E800000F03E82FB0740F1678298F80330012B97
:101E900006D1D8F80C00BB49FEF70EFFC8F80C00BD
:101EA000F80503D4B84BDB68C8F82C3098F80090DC
:101EB000B9F1040F00F0558298F80520002A00F0CF
:101EC0008B82012A40F07F82002402264FF0050A0F
:101ED000CDE90C420B9698F80320012A00F05382BA
:101EE000089B032B00F04482DFF8A8B214AB9BE8F8
:101EF000070083E80700AA0510D598F80700062810
:101F000000F25483A04B9A79824207D014A905F0BD
:101F1000B9F9002800F0618398F80090B9F10A0F30
:101F200049D0B9F15C0F40F06082079B002B00F0B4
:101F30004983DA0700F14984934B5B6BC8F834306E
:101F4000079B9B0700F15C838F4B9B6BC8F8383075
:101F5000079BC3F38003002B00F02A838A4B16995A
:101F6000586AFEF79FFDD8F83C10FEF79BFD864BA4
:101F7000196CFEF797FD002398F801900E93C8F8AE
:101F80003C00B9F1500F40F0EA821F2330E0BAF173
:101F9000080F00F06981BAF1090F00F08481BAF1ED
:101FA000070F00F068814FF400520D234BE74FF408
:101FB00000620B2347E7079B002B00F0038317F019
:101FC000500F00F0FB82D8F8240008F04BFEFFF71A
:101FD00075F8C0B2062800F2E98298F81C30142B7C
:101FE00000F08E82022B02D13B0640F1898214233D
:101FF00018461BB0BDE8F08F0123002288F801309D
:1020000088F802200A93032229E603234FF4006292
:1020100088F808300B2316E70721002A40F0588182
:1020200045FA01F3D80700F1698101238B401D4374
:10203000ADB20EE7002ADAD10A21F1E750230121DF
:1020400088F80130E9E7002A40F04481AAF15A0AF1
:1020500088F804A00321E3E7CAF15E0A88F802A029
:102060000521DAE7AAF1110A88F805A00221D4E7D0
:10207000089B002B40F0A882BAF1310F00F051818B
:102080000A2AB4D1012388F80630032308210893D3
:10209000C6E7AAF1360A88F807A00921BDE7089B20
:1020A000002B40F09182BAF1260F88F801A040F091
:1020B0003E81A2F114039BB21E2B98D8334921FA1A
:1020C00003F3DC0793D5324B0121A3FB0223DB088A
:1020D000763B88F8013002230893A1E7002A40F0FC
:1020E0000281089B002B40F06F82BAF11C0F88F828
:1020F00000A000F03381BAF11E0F00F02F81012300
:102100000893BAF15C0F16D112B10A2A7FF46FAFAF
:10211000504488F80000002182E7CAF1150A88F8C7
:1021200003A0062179E7BAF11C0F88F800A0EBD0D4
:10213000BAF11E0FE8D000216FE7139B0824C8F8FE
:1021400018300323099A42F00402099247FA03F374
:10215000D9070FD427437CE6139B079AC8F83C3075
:102160000C2347FA03F342F00402D90707924FF415
:102170008054EFD5192318461BB0BDE8F08F00BF7F
:10218000809698003333CB41BC0E002001041040F0
:10219000CDCCCCCCE40E0020099A139B42F0010276
:1021A000C8F81030099202240123CFE7099A139B43
:1021B00042F00202C8F81430099204240223C5E751
:1021C000139B0124C8F80C30002347FA03F3D80707
:1021D000D0D400211398FEF70DFF0028BAD00423B5
:1021E00006E788F81CA010240423AFE71398FEF735
:1021F0003FFF2024C8F820000523E6E7139B402476
:10220000C8F824300623E0E7139B8024C8F8283060
:1022100007239BE7139B4FF48074C8F82C300823E6
:10222000D3E7B0491398FEF703FF002840F08D83F1
:1022300088F830A04FF400740923C6E7079A139B6F
:1022400042F00102C8F8343007924FF480640A2348
:102250007CE7079A139B42F00202C8F838300792D5
:102260004FF400640B2371E740234FF4005288F8C9
:1022700009300D23E7E580234FF4005288F8093038
:102280000D23E0E510234FF4805288F80A300C2328
:10229000D9E5012318461BB0BDE8F08F022318468C
:1022A0001BB0BDE8F08F00234FF4005288F80930CE
:1022B0000D23C8E520234FF4805288F80A300C2300
:1022C000C1E500234FF4805288F80A300C23BAE5A8
:1022D00017238DE60A2A7FF48AAEBAF15A0F3FF42B
:1022E00086AE04219CE6BAF11C0F88F800A03FF4EA
:1022F0000CAFBAF11E0F7FF404AF06E7152377E6A3
:1023000098F80230012B18D0774B5B78002B7FF4C4
:10231000C7ADFC073FF5B9AD734B1B69C8F80C306E
:10232000BEE588F8063003230821089378E60223E7
:102330000121089371E61B235AE6089B022B7FF4C8
:10234000AFAD98F80130502B3FF4AAAD002B3FF40D
:10235000A7ADFE073FF5A4AD162349E60123089378
:10236000D6E6790640F12A8127F04007BFB2A3E5FF
:1023700098F80620012A7FF4B7AD079B042B3FF4A1
:10238000B3AD252334E6079BDA0707D5D8F8340028
:102390005649FEF791FC079BC8F83400980707D50B
:1023A000D8F838005149FEF787FC079BC8F8380079
:1023B00059077FF595ADD8F83C004C49FEF77CFCF9
:1023C000C8F83C008CE5012602240023CDE90B640B
:1023D0004FF0060A0D937EE5012402231646CDE94F
:1023E0000B244FF0030A0D9375E5089B032B28D0AF
:1023F000079B33B398F80420002A00F02182D80705
:1024000000F1BE82384A9907D269C8F8342040F1F9
:10241000C782B9F1350F00F0E680334BD8F8381099
:10242000186AFEF741FB079BC8F83800580740F1CF
:1024300002822D4BD8F83C10586AFEF735FBC8F8DD
:102440003C00B9F11E0F00F0E981B9F1350F00F041
:10245000CE80B9F11C0F00F0B98098F80190B9F165
:10246000500F40F0CA80079B002B7FF48EAD0E9377
:102470000A9B13F001020ABF1D4B27F021071F40E2
:10248000089B18BFBFB213B127F4E057BFB2002FAB
:1024900040F09680CDE917771997002A00F0BC80AC
:1024A00025F04905002D40F0078298F80030352BC3
:1024B00002D0002B40F000820B4A17A8117A537A01
:1024C000D2680B430B498DF86430189200F0B6FCCB
:1024D000034600287FF48CAD074A084C07CA84E8FD
:1024E000070085E500007F43BC0E00203333CB415D
:1024F000DEFCFFFF000F0020340F0020D80E00206C
:10250000002800F038820138C3B218460E93BE4945
:1025100004F0B8FE002860D098F81C3027F050076F
:10252000142BBFB2079B00F0AF82D80704D5D8F8B0
:102530003430C8F81030079B990704D5D8F83830E4
:10254000C8F81430079B5A0703D5D8F83C30C8F8B0
:10255000183098F80190B9F1500F3FF416AD089B70
:10256000022B85D1B9F1000F19D00021D8F80C0049
:10257000FEF736FD00287FF4EFAEB9F18C0F00F0C6
:10258000AA8300F29C83B9F1020F00F0F182B9F145
:10259000030F00F0F182B9F1010F7FF469AF079BDF
:1025A000002B089B08BF0023089361E71D231FE54C
:1025B000964A0E93D26BC8F83C20CAE71C2317E555
:1025C000242315E51A2313E5182311E58E49062067
:1025D00004F058FE002840F02881072308E5079BF7
:1025E0009B0740F1DD81079B5A0740F1248198F851
:1025F0000190B9F1010F00F25C8100230E93AEE768
:10260000824B1599186AFEF74DFAD8F83810FEF784
:1026100049FAC8F838009BE47D4B7C4A93F848504F
:10262000547A15F0020514D098F80130013B022BC2
:1026300003D90A9B43F040030A93079B1BB1089BF5
:10264000022B00F085820A9B102C03F0400500F05D
:102650000D826E49D8F8202098F802308A614B70BC
:1026600013B108238DF86430684AD8F80C30D76865
:10267000D8F82C603846314613611793FEF7B0FC4A
:10268000002800F0AF800A9B9B0600F1AB803E461D
:1026900005B9189698F80A0098F830305B4DA042BA
:1026A0002B7505D0189905F0A3F998F80A406C72BB
:1026B000564D9DF8642098F809002B7A1443834204
:1026C0008DF8644009D0FFF7C7F998F80900002891
:1026D00040F03E819DF86440287298F80030044331
:1026E000042B8DF8644000F0A08198F8033047492E
:1026F00098F805208B70089B0A71032B00F011815C
:10270000424C98F80730A2799A4206D014AA07CA18
:102710008BE80700A37106F013FE98F8003098F8D4
:1027200004203A49262BCA7000F0848140F2DE80F2
:102730005C2B00F07281662B00F04481282B03D1C2
:102740003449072004F0BCFC98F801302F4A502B84
:10275000137003D0089A022A00F03E8198F80830DE
:102760002A4AD371002B3FF443AC03F08BF9274B7B
:10277000DB79032B00F0E1810122002446F2644062
:102780006421224D244B2A801A782C71022AEC7085
:10279000AC712C811881997210D005F12801204666
:1027A00004F070FD00283FF418AF06F0C9FD204684
:1027B000002105F08DF82046FFF72AF9082003F0E4
:1027C00065FC0023114AD37112E4104B1499D869A7
:1027D000FEF768F9D8F83410FEF764F9C8F8340049
:1027E000FFF7AEBB6CB10A9B1F060AD4002D00F0A8
:1027F000B6812046002105F0FBF8044BD8F82C6088
:102800005C7A024BDE6043E7100F0020BC0E002014
:10281000F8100020D80E0020440F0020B3490720F4
:1028200004F030FD00283FF4D8AE079B002B46D1C2
:102830000E9308931CE6AE4B5A6AC8F83C2000E69B
:10284000D90740F19280B9F1350F0BD0A84B1499FC
:10285000586BFEF729F9D8F83410FEF725F9079BD5
:10286000C8F834009A077AD5B9F1350F0BD0A04BD0
:102870001599986BFEF718F9D8F83810FEF714F987
:10288000079BC8F838005B07D5D5B9F1350F3FF481
:10289000AEAE974B1698D96BFEF706F9D8F83C10F8
:1028A000FEF702F9924B196CFEF7FEF8C8F83C00EF
:1028B000C7E51E23FFF79CBB1023FFF799BBD80782
:1028C00004D48B4BDB69C8F81030079B990704D4FC
:1028D000874B1B6AC8F81430079B5A0703D4844BF4
:1028E0005B6AC8F8183000230E9332E61C2B00F008
:1028F000A6801E2B00F0A3800A2B7FF425AF0E9D2F
:102900007A4C2846214604F0DBFB794B9B79AB429D
:102910007FF41AAF94E807008BE8070006F010FD7B
:1029200012E798F806304B71002B46D0D8F83C409F
:102930006F4B2146186CFEF753FB00287FF4E0AE86
:102940006B4B1C6406F0FCFCDAE62623FFF750BB59
:10295000674A9DF86440137A18431072BDE6644BD1
:102960001A6A079BC8F838208DE7614BDA69079B24
:10297000C8F8342076E798F807300E931846C6E575
:10298000B9F1350F3FF42BAE594BD8F83410D86954
:10299000FEF78AF8079BC8F834009A073FF53DAD6B
:1029A000534B1A6A079BC8F838205B077FF543AF83
:1029B000B9F1350F7FF43DAD19E600231C46C8F888
:1029C0003C30B5E700234B4AA2F134014B63C2E926
:1029D000013306F0B5FCB7E6012B00F0F781002BC0
:1029E00000F09E80023B012B40F2D9819DF86430BB
:1029F000414D43F004030A9A17A928468DF8643024
:102A000000F0D4FF002800F0858001287FF4A6AEF6
:102A10003A493B4806F09EFCA0E6364B364A07CAC8
:102A200083E8070006F08CFC8EE6D8F8240000F05E
:102A300089FF5AE63249062004F042FB84E69DF8FD
:102A4000643043F001038DF86430089B1BB117A973
:102A5000294800F047FD254D294C284617A900F0CC
:102A600041FD95E8070084E807006DE6204B1B78E0
:102A7000013B022B46D8002D3FF4EBAD0A9B4025CD
:102A800043F020030A93E4E5DB070AD5184B596BA2
:102A9000D869FEF707F8D8F83410FEF703F8C8F83D
:102AA0001000079B98070AD5114B996B186AFDF720
:102AB000F9FFD8F83810FDF7F5FFC8F81400079BA8
:102AC00059077FF546AD0A4BD96B586AFDF7EAFF07
:102AD000D8F83C10FDF7E6FF054B196CFDF7E2FF57
:102AE00098F80190C8F81800FFF74BBA100F0020B3
:102AF000BC0E0020F00E0020340F0020680F0020D4
:102B0000D80E0020002D7FF4A4AD0A9B43F02003D3
:102B10000A939EE5B14C95E8070084E807001DE69E
:102B20009DF86430AE4D43F0010317A928468DF897
:102B30006430AA4C00F0D6FCEDE7AA4B1B78022BC0
:102B40003FF43FAE082006F051FC02F0ADFD38E640
:102B50000A9B03F0400543F080030A9379E5314670
:102B6000204604F045FFA04BD8F82C605C7A48E67C
:102B70000A9B43F004030A93079B002B3FF422AD0A
:102B800013EA0A0F00F00881974B08EB860203EB6B
:102B90008603D969506BFDF785FF934B08EB8402E0
:102BA00003EB84030F90D969506BFDF77BFF17F09F
:102BB0008003109000F0A88027F080070C2288493D
:102BC0008648BFB207F008FF002800F0958098F80B
:102BD0000330D8F82800012B04D18449FEF76CF8A3
:102BE000C8F82800D8F828904FF081414846FEF7F1
:102BF00063F84946FEF760F80F9B81461946184670
:102C0000FEF75AF801464846FDF74CFFDDF840A0B4
:102C1000814651465046FEF74FF801464846FDF7BB
:102C200041FF00218146FEF7E5F9002840F0B18020
:102C3000484608F02BF8514681460F9801F046F8B7
:102C400009F1004901464846FEF7EAF898F80130D4
:102C50008146032BD8F8283008BF00F10049002135
:102C600018460993FEF7C6F9099B28B103F1004302
:102C700009F10049C8F8283010994846FEF71CF8B9
:102C8000DDF83CA001465046FDF70CFF4FF07C51AB
:102C9000FEF712F8023608EB8606B0605146484649
:102CA000FEF70AF81099FDF7FFFE4FF07C51FEF792
:102CB00003F8023408EB8404A060FFF7D9BBB9F134
:102CC0008E0F08D003D3B9F18F0F7FF4D1AB0A9BDD
:102CD00043F010030A9309F17203DBB2012B0ED902
:102CE000079B002B3FF46EAC0C223D493B4807F09C
:102CF00073FE00287FF4BCAB2123FFF779B90A9B50
:102D000043F008030A93EBE7099A12EA0A0F00F06E
:102D10008E8098F8032027F00E07012ABFB26BD0EF
:102D2000023408EB8404A1681098FDF7BBFE8146CD
:102D3000023608EB8606B1680F98FDF7B3FE4946E8
:102D400000F0C4FFA1688146B06800F0BFFF0646EE
:102D500048463146C8F82860FDF7A4FE20F000443C
:102D600020462349FEF764F900283FF481AB4FF079
:102D70007C512046FEF75CF90028BDD11D49304644
:102D8000FDF79AFF2146FEF735F900283FF470ABB6
:102D9000B2E72223FFF72CB92023FFF729B90A9BBA
:102DA0000F4DC3F3800304930D9B0C4C03930C9BBA
:102DB000D8F8286002930B9B17A901932246A5F12E
:102DC00024032846009600F0C3FBA4E6044D17A98F
:102DD000284600F087FB014C9DE600BFD80E00207E
:102DE000340F0020440F0020BC0E00203333CB41B1
:102DF0000AD7A33B6F12833A99460E4B0E4A9A4666
:102E0000099B43FA09F313F0010F09F1010908D0F6
:102E10001146DAF800001192FDF74EFF119ACAF838
:102E20000000B9F1030F0AF1040AE9D178E723237E
:102E3000FFF7DEB8100F00203333CB4170B50546E5
:102E4000037AC86843F00403124A28602B7292F890
:102E5000483001F134049B0603D5204606F096FA6B
:102E6000A8B90D4E2046294600F03CFB347814B139
:102E70000024204670BD01F0EFF80028F8D0202390
:102E8000337005F0C3F904F047FE204670BD0F24EF
:102E9000204670BDF8100020440F002030B50121FD
:102EA00085B009204FF4E054FEF774FC4823032258
:102EB00004A91F4D21F8104D1E488DF803308DF8E0
:102EC0000220FEF77BFA95F848301B0706D44FF432
:102ED0008072194BC3F8842005B030BD642000F027
:102EE000E5FE0A210120FEF737FC0B210120FEF749
:102EF00033FC0C210120FEF72FFC95F8483000220E
:102F000013F0400F14BF08210C21012302A88DF8F3
:102F10000D108DF80C208DF80E300294FEF724F978
:102F2000064B04A840F80C3DFEF7F2F805B030BDA2
:102F3000F8100020000C014000E100E0280202012E
:102F40004FF48072014BC3F88420704700E100E029
:102F500008B51048FEF7B8FB03460F4A92F8482020
:102F600052065CBF80F4E0539BB28BB10B4A1088D1
:102F70005188034218BF0120928808BF00200B42ED
:102F800018BF40F00200134201D040F0040008BD19
:102F9000184608BD000C0140F810002038C0000899
:102FA00008B54FF48060FEF71DF938BB4FF40060A0
:102FB000FEF718F9E8B94FF48050FEF713F998B905
:102FC0004FF48071104A114BC2F884111B78012B09
:102FD00002D00F4B1B7803B108BD00F079FDBDE8AE
:102FE0000840012006F016BA4FF48050FEF708F9A9
:102FF000E6E74FF40060FEF703F9DCE74FF480608A
:10300000FEF7FEF8D2E700BF00E100E0440F002029
:10301000740F00202DE9F04FDFF8A8828FB098F8E8
:10302000013013B10FB0BDE8F08F044606219D4A70
:1030300005901068928814F00104CDE909330893D3
:103040000690ADF81C208DF8281040F0CF804FF08E
:103050000009954E059BC3F3400304934BB193497C
:10306000B06AFDF729FE49460546FDF7C3FF00B9E2
:10307000A946059BC3F3800303934BB18B49F06AC8
:10308000FDF71AFE49460546FDF7B4FF00B9A9460B
:103090004FF0040B0125336D854F0193DFF828A213
:1030A000E3B2029383490BA806F054F9029B002B6C
:1030B00000F036810021B6F84A207E4BD007196017
:1030C00040F13E81002D40F03E81CDF82C9002224F
:1030D0000120BDF81840049B83B10020B6F84A10C7
:1030E000744B8907586040F12481002D40F0248101
:1030F000CDF830901046BDF81A100C43039B8BB1ED
:103100000021B6F84A206B4B01305207C0B29960DB
:1031100040F11D81002D40F01D81CDF83490BDF8A7
:103120001C301C43FDF770FD07F0B0FDA8F8064009
:1031300001460198FDF7C0FD08A908900BA801F011
:1031400079F8042388F8043005F060F804F0E4FC12
:10315000DFF86C91002D58D105F058F83B7813F04A
:10316000340F40F08D806207F4D104F0E1FEB6F830
:10317000540000F09BFD85F00104002D40F0D48048
:103180004D49B06DFDF798FD8146F36C01930BF14D
:10319000FF3B1BF0FF0B254684D15C46059F47FA99
:1031A00004F3A50013F0010F06EB050115D0B6F8E6
:1031B0004A30B26D2341DB0702F1004056F82490FB
:1031C00040F1CC80496A1046FDF76EFC4946FDF798
:1031D00073FD07F0DDFC374B58510134032CDED171
:1031E000002388F804300FB0BDE8F08F2E4E2F4931
:1031F000706AFDF761FD00218146FDF7FBFE0028A6
:103200003FF428AF4FF0000924E74846FEF75CFA88
:1032100096F848305B065CBF80F4E05080B230B373
:10322000BAF80030BAF80220184214BF0123002374
:103230001042BAF8042018BF43F002031042BDF850
:10324000182018BF43F00403144202D0D80748BF27
:103250009443BDF81A20144202D0990748BF944302
:10326000BDF81C20144202D09B0818BF9443A8F854
:10327000064004F0CBFF3B7813F0340F3FF473AFFC
:103280003C78E4B2E2066FD4A3061FD41DB36107F5
:103290006ED40A4B1B78002B6ED1042006F0B0F8D8
:1032A00063E700BF40C00008F81000200000C0BF66
:1032B000590F0020680F00200000A040740F00206C
:1032C000000C0140440F002038C00008072006F021
:1032D000A1F8002DDBD12B48FEF7F6F996F848301F
:1032E0005C065CBF80F4E05080B20028D1D0BAF810
:1032F0000030BAF80220184214BF01230023104204
:10330000BAF8042018BF43F002031042059A18BF10
:1033100043F004031A42BCD0082006F07BF8B8E75B
:103320001C4618460122D6E6336DD6F85890019314
:103330002DE7002D7FF4DCAE09F100410C91D9E6B8
:10334000002D7FF4C2AE09F100420B92BFE6002DC2
:103350007FF4E3AE09F100430D93E0E64946FDF743
:10336000ABFC07F015FC36E7062006F053F88BE7B8
:10337000092006F04FF88CE700F0AAFB02F094F960
:1033800050E600BF000C014010B505F0FFFFC8B1CA
:1033900001230D4C2078E370082808D000F098FB3A
:1033A000022006F037F8BDE8104002F07DB906F0C3
:1033B0001DF802E02378002BF0D002F075F9637855
:1033C000002BF7D010BD00BF440F00202DE9F84FAF
:1033D00006F0A6FF06F0B0FF06F056FDFDF716FF5B
:1033E000FEF764FB294A46F2644B13684FF0640A07
:1033F00023F00403136003F029FD04F0C1F804F086
:103400003FFE05F047FD00200446214B214D93F877
:103410004810C5E90000A8601F4F204EDFF88C90CF
:10342000DFF88C801E4DC1F300111E4B89F800405F
:1034300088F800401C701C4BBC603C607C60C7E995
:103440000344A7F808B087F80AA01C703970C6E9D1
:103450000044B4602C7003F011FEFEF7C5FB04F0CD
:1034600035F9FEF781FAFFF719FD01F0A7FB00F02F
:10347000ABFD04F05DFD01F09BF8FEF7CBFB02F025
:1034800063FE02F023FD3978CFE700BF10E000E0D3
:10349000F8100020680F0020440F00205C0F00206F
:1034A000580F0020740F0020400F00205A0F0020FA
:1034B000590F002042F22831094B30B40025012475
:1034C0001A4601FB00F058609D601C60136803F011
:1034D0000113012BFAD030BC0023136093607047B6
:1034E00010E000E0F8B5174D174C95F848200E464F
:1034F00091062378074604D5202B0AD0FFF744FF16
:103500002378022B05D1F8BD00F0D2FD38B101F0CF
:10351000C3FB02F0C9F86378002BF5D0F3E7384617
:10352000314600F087FE0028EDD195F848309A0723
:10353000E9D5337ADB06E6D571681020BDE8F8409E
:1035400004F056BAF8100020440F002000000000DC
:103550002DE9F04F1F468FB09DF86440934653F815
:103560002450A3000B900791284652F824101A44C7
:10357000FB1801920893FDF797FA9DF86860824660
:1035800057F82680B300FA185BF826105B440390C6
:10359000404609920293FDF787FA0B9F81465146F8
:1035A000049057F82400FDF77DFA4946044657F881
:1035B0002600FDF777FA05F1004506462146284624
:1035C000FDF77AFB08F10048074631464046FDF713
:1035D00073FB01463846FDF767FA31460746284631
:1035E000FDF76AFB214606464046FDF765FB0146AE
:1035F0003046FDF757FA39469DF87060DDF8609067
:103600009DF86CA007F040FB0446002E00F05E81A0
:10361000FCF702FFA8A3D3E9002306460F46FDF7F7
:10362000D9F9002840F07481A54B4946DE6B484625
:10363000FDF73AFA3146FDF735FA3146FDF73CFB26
:1036400007F024FB4FF07C5106462046FDF734FB83
:103650004946FDF731FB314620F00040FDF7E0FB25
:1036600007F052FAFDF72AFD83B20093002B00F019
:103670005A811846079B1E7AFDF7CAFA310707469A
:1036800000F13B8139462046FDF7CAFB0B9B0646FD
:103690000C905BF82A1053F82A00FDF703FA39461C
:1036A000FDF7BEFB314605903046FDF705FB0146B0
:1036B0004FF08040FDF7F6F9824904463046FDF7A9
:1036C000FBFA4FF0814106462046FDF7EDF9014631
:1036D0003046FDF7F1FA4FF07C5106902046FDF799
:1036E000EBFA009B0BEB8A07012B0D9000F01B817E
:1036F00001264FF00009744CCDF828B0B9F10B0F3A
:1037000000F2A58029460698FDF7D6FADDF834B018
:10371000824641465846FDF7CFFA01465046FDF72E
:10372000C3F9294682465846FDF7C6FA4146054682
:103730000698FDF7C1FA01462846FDF7B3F9D046D1
:10374000054609F101095FFA89F903992846FDF751
:10375000ABF9019B049918604046FDF7A5F9029B5F
:10376000059918603868FDF79FF9554B386093F854
:1037700048309A0605D52378202B0BD00A98FFF7FE
:1037800003FE2378022B05D121E000F091FC48B123
:1037900001F082FA01F088FF6378002BF5D00FB0BA
:1037A000BDE8F08FDDF81CA00A98514600F042FDFC
:1037B00068B9434B93F848309B0708D59AF808300E
:1037C000D80604D5079B1020596804F011F96378D6
:1037D000002BE4D10136009AB3B293428ED3384B1A
:1037E00093F848202378910605D5202B0FD00B980D
:1037F000FFF7CAFD2378022BD1D001F055FF637883
:10380000002BCCD100F054FC50B101F045FA01F08E
:103810004BFF6378002BC2D100F04AFC0028F4D1A2
:10382000079C0B98214600F005FD0028B7D1244BDA
:1038300093F848309A07B2D5237ADB06AFD510202B
:10384000079B59680FB0BDE8F04F04F0D1B830467F
:10385000FDF7DEF90C99FDF72FFA054607F018F988
:103860008146284607F0C0F9089B82461B684946F6
:1038700003F1004B099B5846D3F80080FDF71CFA72
:10388000514605464046FDF717FA01462846FDF722
:103890000BF9514605465846FDF70EFA4946824651
:1038A0004046FDF709FA01465046FDF7FBF84FF098
:1038B0000009804649E700BF8DEDB5A0F7C6A0BE60
:1038C000F8100020ABAA2A3E440F0020FCF7A4FD0C
:1038D00017A3D3E9002306460F46FDF771F8002829
:1038E0003FF4A2AE14A3D3E9002330463946FCF7D7
:1038F00035FCFDF783F8044696E6079A0146106802
:10390000FDF7DAF9079B26F0080618601E72B9E683
:1039100009A3D3E9002330463946FCF71DFCFDF727
:103920006DF8044680E6064C59E700BFAFF300800F
:103930008DEDB5A0F7C6A03E182D4454FB211940CB
:10394000440F0020074B1B78022B09D010B504460A
:1039500002F098F82046BDE81040002100F06EB952
:10396000704700BF440F002008B5FFF7E9FA0420B4
:10397000FFF750FB0320FFF74DFB01F095FE094BCD
:103980005B7803B108BDFEF745F900F011FE4FF476
:10399000E050FDF735FC4FF48072034BC3F88421EF
:1039A0005A6008BD440F002000E100E02DE9F0411D
:1039B000424C2378022B32D015460F46064602F0C1
:1039C00061F894F80180B8F1000F25D1C5F3C0006B
:1039D00084F8058001F018F901F02AF968BBDFF8D6
:1039E000EC80237898F84820900605D5202B1ED02F
:1039F0003046FFF7C9FC2378022B18D10123304E43
:103A00000220337005F0F2FC01E02378F3B101F0FD
:103A10004BFE6378002BF8D00220BDE8F081002037
:103A2000BDE8F08100F044FB48B301F035F901F046
:103A30003BFE6378002BF5D0E0E7042005F0EAFCBC
:103A400001F032FE404601F0DFF8E5E73378012B64
:103A500027D00123637100231846337001F0D4F896
:103A600001F022FE04F064FA00F0AEFA00F0A0FDCE
:103A700002F0EEFD6079003018BF0120CDE730463E
:103A8000394600F0D7FB0028B8D198F8483099079C
:103A9000B4D53B7ADA06B1D57968102003F0A8FFD7
:103AA000ACE7EB0605D5074A074B07CA83E80700D2
:103AB000D1E7052005F0AEFCCDE700BF440F0020A4
:103AC0005A0F0020680F00205C0F0020F810002023
:103AD00008B5154B1B78DB0600D508BD102005F096
:103AE00085FC03F093FEFDF785FF104A137813F071
:103AF0002C0F08D0042B0BD10D4B1B787BB1BDE8EC
:103B0000084004F049B8127912F0060FF2D1E4E748
:103B1000032005F07FFCBDE8084004F03DB8062016
:103B200005F078FCEBE700BF590F0020440F0020A0
:103B3000740F00202DE9F04F0C7883B0035D04442E
:103B40002D2B69D02B2B1DD04FF00008651C0026B3
:103B500034463746B4460CE00134E4B2082C16D89B
:103B60000EB1013F7FB20CEB8C0C03EB4C0C15F843
:103B7000013B303BDBB2092BEED9FE2B0CD15EB9F9
:103B80000126F4E74FF000086378A51CDFE7002E5C
:103B9000EDD101377FB2EAE7002C39D0824660468A
:103BA00001919146FDF730F800218346FDF718FAA0
:103BB00008BB791C12DA3E461D4C58462146FDF7DB
:103BC0007BF8B31C5EB2721C8346F6DBFFB2C7F112
:103BD000FE0303F0FE031F4402377FB27B1C20D09C
:103BE0004FB1144C58462146FDF766F8013F7FB2AD
:103BF0008346002FF6D1B8F1000F01D00BF1004B36
:103C00000124A5EB0A05019B013DC9F800B01D7018
:103C1000204603B0BDE8F08FA51C63784FF0010883
:103C200095E758460449FDF747F88346E3E700BFA8
:103C30000AD7233C00002041CDCCCC3D70B50E46C8
:103C40001849FDF739F806F0DFFEFDF737FA80B2C4
:103C5000B0B1154D6B789BB9441EA4B28EB14FF62E
:103C6000FF7608E0013C3220A4B2FFF723FCB44207
:103C700006D06B7823B901F019F8AB789B07F1D522
:103C800070BD4FF6FF7602E06B78002BF8D1013C57
:103C900001F00AFDA4B23220FFF70CFCB442F3D1CC
:103CA00070BD00BF0000A041440F002060B138B5D6
:103CB0004FF6FF75441EA4B2013C0120A4B2FFF7E9
:103CC000F9FBAC42F8D138BD704700BF38B50D469E
:103CD0000146FCF7F1FF294604462846FCF7ECFFB5
:103CE00001462046FCF7E0FEBDE8384006F0CEBFB6
:103CF00070B50568044600212846FDF771F90028D3
:103D000040D129462846FCF7D7FF0021FCF7CCFE1E
:103D10000546666800213046FDF762F940B9314634
:103D20003046FCF7C9FF01462846FCF7BDFE0546B4
:103D3000A66800213046FDF753F940B931463046B8
:103D4000FCF7BAFF01462846FCF7AEFE05462846BA
:103D500006F09CFF064601464FF07E50FDF760F8E6
:103D6000054601462068FCF7A7FF294620606068E9
:103D7000FCF7A2FF29466060A068FCF79DFFA060E9
:103D8000304670BD0025C4E7F8B50C680D46064600
:103D900000212046FDF724F950B921463068FDF78F
:103DA0003FF820F0004420461549FDF741F900B1E5
:103DB000134C6F6800213846FDF712F958B939469F
:103DC0007068FDF72DF820F0004739462046FDF7D2
:103DD00011F900B93C46AD6800212846FDF700F90D
:103DE00058B92946B068FDF71BF820F00045284671
:103DF0002146FDF71DF900B92C462046F8BD00BF4D
:103E0000FFFF7F7F2DE9F04F6B4B83B01B78019351
:103E1000002B00F0BA805C1EE4B2684B93F800807F
:103E2000A04500F0AF803426654D06FB0456F169CD
:103E3000B7690846FCF738FE316AFCF73DFF0646D5
:103E400001463846FDF7D6F800B13E46342303FB61
:103E500004535E61002C00F09A80631E5FFA83FBBE
:103E6000584BD845197800F0998034275E4607FBF7
:103E7000045427E0013EF6B2B1422BD007FB0959AA
:103E8000D9F818B0D9F814005946FDF7A9F8A0B927
:103E9000D9F81C100846FCF707FED9F82010FCF7EB
:103EA0000BFF6169FCF700FE044601465846FDF72A
:103EB000BFF800287DD0C9F81440464510D05446BC
:103EC000404B1978B14607FB065A002ED2D1232663
:103ED000B142D3D104F084F9384B93F80080CDE798
:103EE000B346354B1B7801934FF034080BF10104B6
:103EF000E4B2242C08BF002408FB0B5ACDF8008044
:103F00004FF0000935E0009BDAF8148003FB0457FA
:103F10007E6940463146FDF76DF8B8B1DAF81C10FD
:103F20000846FCF7C1FDDAF82010FCF7C5FE414653
:103F3000FCF7BAFD804601463046FDF779F828B116
:103F40004646A3464FF00109C7F81480009B31464E
:103F500003FB04539869FDF743F8631C002818BF5E
:103F6000A346DCB218BF4FF00109242CBA4608BFA3
:103F70000024019B9C42C6D1B9F1000F02D00F4B27
:103F800083F800B003B0BDE8F08F232445E74FF07D
:103F9000230B0C4BD84519787FF467AF8B45A3D121
:103FA00004F01EF9044B1B780193044B93F800B006
:103FB0009AE7C9F814B080E7BC080020BD080020CB
:103FC0006C010020BE0800200023012030B4094A03
:103FD0000949C2E900330B70C2E902330749C2E95B
:103FE0000433074D074C936108702B70237030BC6D
:103FF000704700BFC0080020BE080020BF08002096
:10400000BC080020BD0800200A490B4B0A781B7829
:1040100093420DD0531CDBB2242B08BF002310B4F5
:1040200006480B700478944208BF037010BC7047B8
:10403000704700BFBE080020BC080020BD0800205B
:104040003420034A034B127800FB0230704700BF54
:10405000BC0800206C010020054B064A1B78127832
:104060009A421DBF3422044802FB0300002070471F
:10407000BE080020BC0800206C010020094B0A4A41
:104080001B7812780133DBB2242B08BF00239A423D
:1040900005D03421054A01FB0323586970470020ED
:1040A000704700BFBE080020BC0800206C01002043
:1040B000044A054B10781B78C01AB0FA80F040090A
:1040C000704700BFBE080020BF08002038B5837CC1
:1040D000C46ADA0715D5174B587AFCF799FD1649CB
:1040E000FCF7EAFD01462046FCF7E6FD04464FF0EA
:1040F0007E512046FCF79CFF08B94FF07E542046C5
:1041000038BD5B0705460BD40A4B187AFCF780FDD7
:104110000949FCF7D1FD01462046FCF7CDFD0446D8
:10412000AD6A21462846FCF765FF0028DFD02C4603
:10413000DDE700BF440F00200AD7233C2DE9F04FF4
:10414000354A364B127885B0354901921A7A5B7A36
:104150000C7803920293334FDFF8D4A04FF0340968
:104160004FF07E5B28E00298FCF752FD2E49FCF7E9
:10417000A3FD4146FCF7A0FD054659462846FCF73D
:1041800057FF00B95D4629463846D6F82480FCF72B
:1041900031FF002835D039463846FCF78DFD0746FB
:1041A00039464046FCF726FF40BBB7610134E4B214
:1041B000242C08BF00242F46019BA34227D009FBD3
:1041C00004A6B37CD6F82C80DA07CCD45B070AD4DB
:1041D0000398FCF71DFD1449FCF76EFD01464046AF
:1041E000FCF76AFD804609FB04A39D6A4146284608
:1041F000FCF700FF0028C0D14546BEE7C6F818808E
:10420000D4E729462846FCF757FD0746C8E7074B81
:104210009F6105B0BDE8F08FBC080020440F00206E
:10422000BE080020FFFF7F7F0AD7233CC008002084
:104230006C01002034222DE9F04F0C46A84B834638
:104240001B78A8488FB002FB030A01915046002159
:10425000009306F0D0FB237A62688AF812309B073D
:104260004CBFA14BA14BCAF830200DF1140893E8C4
:10427000070088E80700009A3423114657460025B6
:10428000984A9B4E03FB0129ABF1040B5BF8041F1A
:104290003068FCF711FD06F07BFC58F8253002AAC7
:1042A00042F82500C01A80EAE074A4EBE07447F8F5
:1042B000044BD9F80C309C4238BF1C46C9F80C405E
:1042C000FCF7A6FC56F8041BFCF7AAFD08AB00217E
:1042D00043F82500FCF78EFE38B1864BB9F8102064
:1042E00033F815301343A9F810300135032DCDD123
:1042F0001CB920460FB0BDE8F08F08A8FFF7F8FC06
:10430000009B34241A46774B08A904FB0234206230
:104310007948FFF739FD08A9E0617848FFF734FDD7
:10432000A57CA062EF0767D5E062754B6C4A1B78ED
:1043300012789A4201D0AC076BD5009A342311460B
:10434000684A03FB012300225A615A62009A34230F
:104350001146644A03FB01239A7C900755D4D10788
:10436000DC6A40F19680674B587AFCF751FC66494D
:10437000FCF7A2FC01462046FCF79EFC04464FF0E9
:104380007E512046FCF754FE08B94FF07E54574D3D
:104390002146AF69DAF824603846FCF72BFE002886
:1043A00000F0988039463846FCF786FC07463146CF
:1043B0003846FCF73DFE002840F08980CAF81870A6
:1043C000524A47481178524E4B1CDBB2242B08BF8F
:1043D0000023137008AB017093E8070002ABAC61D7
:1043E00086E8070093E8070085E80700FFF70AFD65
:1043F00001200FB0BDE8F08F019B2E071968E16224
:1044000093D5206AFCF758FC8EE701200FB0BDE879
:10441000F08F364C089EE76830463946FCF74CFC76
:1044200001460020FCF73EFB394605463046FCF7C6
:1044300039FB2769099E0B9039463046FCF73CFC56
:1044400001462846FCF72EFB394605463046FCF768
:1044500029FB66690A9C0C9021463046FCF72CFC2F
:1044600001462846FCF71EFB314605462046FCF770
:1044700019FB28490D902846FCF7DAFD00284BD09F
:10448000009A34231146174A03FB012300225A6283
:104490005CE753070BD41B4B187AFCF7B9FB1A499E
:1044A000FCF70AFC01462046FCF706FC0446009A8D
:1044B000342311460B4A03FB01239D6A21462846FB
:1044C000FCF798FD00283FF45AAF2C4657E7CAF88E
:1044D000186075E721462046FCF7EEFB074666E7C5
:1044E000BC0800206C010020680F0020C0080020DC
:1044F000F810002030C00008101100200411002026
:10450000BE080020440F00200AD7233CBF0800202B
:10451000CC080020EFFF7F3F20492846FCF76AFDCA
:1045200040B1009A342311461D4A03FB01231D4A62
:104530005A620BE70BA8FFF7DBFB0BA91A48FFF742
:1045400023FC294606464FF07E50FCF7ABFA4FF0AD
:104550007C51FCF7B1FB06F099FB0446134B304647
:10456000996BFCF7A9FB2146FCF7A6FB2146054603
:104570004FF07E50FCF796FA01462846FCF750FCB7
:1045800000210446FCF736FD00B10024009A3423D4
:104590001146034A03FB01235C62D7E6EFFF7FBFAE
:1045A0006C010020FFFF7F7F10110020F810002019
:1045B000044A054BD2E900019268C3E900019A6000
:1045C000704700BF680F0020C0080020064A074B54
:1045D00012781B789A422CBF03F1230003F1FF30BD
:1045E000801AC0B2704700BFBC080020BE0800207F
:1045F00008B503F0F5FD044A044B12781A70BDE8C3
:104600000840FFF7FFBB00BFBE080020BD08002028
:1046100010B50446007828B102F01AFC14F8010F16
:104620000028F9D110BD00BF632870B5054620D918
:104630001C48A0FB05304009303002F009FC1A4844
:10464000A0FB0534E408E3B2A0FB0320C00800EBA4
:104650008000A3EB40003030C0B202F0F9FB04EB65
:104660008400A5EB40003030C0B2BDE8704002F0DD
:10467000EFBB092805D8BDE870403030C0B202F069
:10468000E7BB0A26B0FBF6F404F13000C0B202F03A
:10469000DFFB06FB1450BDE870403030C0B202F0C2
:1046A000D7BB00BF1F85EB51CDCCCCCCF0B50D46B0
:1046B00085B000210646FCF79DFC002840F0C28032
:1046C000012D40F2C7802C466D4F30463946FCF72D
:1046D000F3FA023CE4B2012C0646F6D805F00103D9
:1046E00023B130466749FCF7E7FA06464FF07C51A4
:1046F0003046FCF7D9F9FCF7BBFC002800F0AC8091
:104700000022614EA6FB0013DB0803EB8301A0EB44
:104710004100541C04A930300A44E4B202F8100CE1
:1047200022461846002BEDD1A54268D93021631CE2
:10473000DBB204AA22449D4202F8101C7ED9A21CBE
:1047400004A8D2B20344954203F8101C72D9E31CAA
:10475000DBB202449D4202F8101C6FD9221DD2B276
:104760000344954203F8101C64D9631DDBB2024474
:10477000AB4202F8101C61D2A21DD2B20344954292
:1047800003F8101C56D9E31DDBB202449D4202F827
:10479000101C53D904F10802D2B20344954203F825
:1047A000101C47D904F10903DBB202449D4202F810
:1047B000101C43D904F10A02D2B20344954203F813
:1047C000101C37D904F10B03DBB202449D4202F8FE
:1047D000101C33D904F10C02D2B20344954203F801
:1047E000101C27D904F10D03DBB202449D4202F8EC
:1047F000101C23D90E340344E4B203F8101CA54264
:1048000010D06CB16B1E0DEB0406DFB2A54226D0B2
:1048100016F8010D013C02F01BFB14F0FF04F5D16A
:1048200005B0F0BD302204AB6C1C2B4403F8102CF7
:10483000E4B2E6E71446A542E3D1F3E71C46A542FD
:10484000DFD1EFE72D2002F003FB012D06F100463A
:104850003FF639AF2B4643E765B1044666E72E20A5
:1048600002F0F6FA16F8010D02F0F2FA3C46002FBB
:10487000CCD1D5E7302301248DF80030C2E700BF4A
:104880000000C84200002041CDCCCCCC30B5754BE7
:1048900085B093F84830DB075AD400210446FCF772
:1048A000A9FB002840F0B7806F492046FCF704FAC6
:1048B0006E49FCF701FA4FF07C51FCF7F5F8FCF774
:1048C000D7FB002800F0AD800024694D00E01C46B5
:1048D000A5FB0032D20802EB8203A0EB430004A93F
:1048E0003030631C214401F8100CDBB21046002A62
:1048F000EDD1022B00F2AD803021A21C04A8D2B26F
:104900000344032A03F8101C07D00244FF2C02F8CA
:10491000101C02D130238DF80230302504238DF88D
:1049200003500AE02E2002F093FA284602F090FA93
:1049300004AA2346144414F8115C5C1E032BE4B251
:10494000F0D0284602F084FA002CF1D105B030BD39
:104950004849FCF7B1F900210446FCF74BFB00285D
:1049600064D141492046FCF7A7F93F49FCF7A4F977
:104970004FF07C51FCF798F8FCF77AFB00285BD0ED
:1049800000243B4D00E01C46A5FB0032D20802EBA0
:104990008203A0EB430004A93030631C214401F8DA
:1049A000100CDBB21046002AEDD1032B4AD830217F
:1049B000A21C04A8D2B20344042A03F8101C0FD08E
:1049C0000334E4B20244042C02F8101C08D0302353
:1049D00004AA2244022C02F8103C01D18DF80330C5
:1049E000302505238DF804500AE02E2002F030FA1D
:1049F000284602F02DFA04AA2346144414F8115C48
:104A00005C1E042BE4B2F0D0284602F021FA002C00
:104A1000F1D105B030BD2D2002F01AFA04F10044A6
:104A200042E743F23003ADF8003073E72D2002F087
:104A30000FFA04F1004494E743F230030224ADF886
:104A40000030C4E7042BCBD004AA1A4412F8115C3E
:104A5000D6E7032B3FF461AF04AA1A4412F8115CA5
:104A60006BE700BFF81000200000C84200002041A2
:104A7000CDCCCCCC8B42213D70B54C4B84B093F85F
:104A80004830DB0733D400210446FCF7B3FA002892
:104A900074D14FF07C512046FCF706F8FCF7E8FA99
:104AA000002871D00024424D00E01C46A5FB0032D6
:104AB000D20802EB8203A0EB430004A93030631C50
:104AC000214401F8100CDBB21046002AEDD1002B76
:104AD0005AD00DF1FF32D5182D1B0DEB030414F83D
:104AE000010D02F0B5F9A542F9D104B070BD31490C
:104AF000FCF7E2F800210446FCF77CFA002849D1D3
:104B00002D492046FCF7D8F84FF07C51FBF7CCFF3D
:104B1000FCF7AEFAA0B10021254CA4FB0032D2086C
:104B200002EB8203A0EB430004AD4B1C3030294460
:104B3000DBB201F8100C19461046002AEDD17BBB00
:104B400030238DF800303022022316468DF80120E4
:104B50005C1EE5B26D4400E05C1E304602F078F960
:104B6000E3B2012B15F8016DF6D12E2002F070F999
:104B7000304604B0BDE8704002F06AB92D2002F062
:104B800067F904F1004484E7302004B0BDE87040C8
:104B900002F05EB92D2002F05BF904F10044AFE7AA
:104BA000012BD0D0294411F8116CD1E7F810002066
:104BB000CDCCCCCC8B42213D0000204110B5012151
:104BC00082B04FF400440420FCF7E4FD03224823A4
:104BD00002A921F8044D09488DF806208DF8073008
:104BE000FCF7ECFB0021064A064B92F9482019809D
:104BF0008A42A8BF1C8002B010BD00BF000801405F
:104C0000F8100020760F002000230749074A91F989
:104C1000481013809942AABF4FF400414FF400435B
:104C2000118000B113807047F8100020760F00202B
:104C300008B50548FCF748FD044B00F400401B880C
:104C4000181A18BF012008BD00080140760F002087
:104C500038B50B48FCF738FD0A4B00F400401B88C0
:104C600083420CD00021084B084D094A094C1970A9
:104C70002B7807CA84E8070043F040032B7038BD47
:104C800000080140760F00205A0F0020590F002025
:104C9000680F00205C0F002008B5FFF7DDF920B198
:104CA000BDE80840022004F0A1BB08BDF8B5AE4B3A
:104CB0001B78002B40F0B280AC4CAD4D2B7803F04C
:104CC000FF05002B5BD0E80600F1A580E90700F1A5
:104CD000238115F0E80F33D023786EB29A0729D1DB
:104CE00013F0280F40F04C8105F0400105F0080258
:104CF000002B40F04D810120A070002900F06F8151
:104D00004121A1701AB113F0E00F00F06B81A806E9
:104D100010D5062001F0BAF9A378190607D4227835
:104D2000402A00F0A081802A01D04022227043F066
:104D30002003A370002EC0F23F81E82004F060FB46
:104D4000AB0719D515F0680F13D12378402B00F06D
:104D50002A81002B40F0498100232371FFF77CF961
:104D600020B1A37813F0400300F06E810023A370FC
:104D70002370022004F044FB690700F1B5807D4BED
:104D80001B7803F0FF05002B73D17B4B1B7803F0DE
:104D9000FF0523B9237813F0FC0F38D1F8BD04F0D8
:104DA00065FBA27A15F0010F0CBF13466423AE0712
:104DB00044BF0A33DBB2680744BF0A3BDBB22907B2
:104DC00044BF0133DBB2EF0644BF03F1FF33DBB274
:104DD000C82B28BFC8230A2B38BF0A239A4206D003
:104DE00000212279A37242F0080323712173AE06D9
:104DF000237805F0C00220D5102B1ED1E17A0029BE
:104E000040F0E4800221E172002A40F09980BDE880
:104E1000F84003F0FBB901236370F8BD012603F0ED
:104E2000FF05524C2846013D267001F019F9B542A4
:104E300078D94F4D04F0F6FA40E7002AABD0002BAA
:104E40007ED14E4F2A063E7A05D533064CBF06F07A
:104E50007F0646F08006680605D571064CBF06F051
:104E6000BF0646F040063046FCF7D2FD23783E727E
:104E700091E704F0F3FA217A15F0010F0CBF0B460D
:104E80006423AF0744BF0A33DBB26E0744BF0A3B5B
:104E9000DBB2280744BF0133DBB2EF0644BF03F1A6
:104EA000FF33DBB2C82B28BFC8230A2B38BF0A2325
:104EB000607A15F0200F14BF6422024615F0400FEF
:104EC00018BF322215F0800F18BF1922994202D163
:104ED00082423FF45AAF0021237262722173FFF7BE
:104EE0002DF9FFF785FB50E72278A37812F0D00F59
:104EF00059B201D0E27842B3002928DB13F0200236
:104F00001BD0402203F07F0343F00103A370227003
:104F1000042004F075FA32E701F0BEFD012004F030
:104F20006FFAD6E6304601F0B1F8102004F068FAC6
:104F30000F4D2B78DE06FCD57CE7A2702270E7E7E8
:104F400013F0180F3FF427AF7BE700295FDA002347
:104F50002371FFF739F802F0EBFFFCF75BFEFFF778
:104F600027FBA378CAE700BF740F0020440F00207E
:104F7000590F0020400F0020580F0020BC0E0020C9
:104F8000A27812F0C00F4FD005F0400105F00802E2
:104F900000293FF4B7AE9F063FF5B4AEA17841F0CB
:104FA0004001A170AEE6A37813F020027FF4E1AED9
:104FB000DF0651D52270CFE62378012B03D1A378E9
:104FC00043F00503A37080232370B6E6C80702D51B
:104FD00041F00401E172002A7FF433AF17E7002AA1
:104FE0003FF495AE1023237091E6DA067FF5C1AE4B
:104FF000A278D0077FF5BDAE102B7FF4ADAEE37A7B
:10500000002B3FF4A9AE43F00803E372B1E6FFF7CB
:10501000EFFA23799A0703D5A27842F00102A27031
:1050200023F00603237173E703F0DAF802222378F2
:105030002271202B7FF458AE002EFFF668AEA378C5
:1050400063F07F03A37062E60822A370227003F06E
:10505000DDF802F061FD8CE65E077FF58AAE43F075
:105060000803A37085E61A077FF55FAE23F01C03E3
:1050700043F0020359E600BF2DE9F04F83B0FEF77D
:10508000EBFF002800F07882867CD0F83080BE4D9F
:1050900095F84830980700F16B820027BB4CA37845
:1050A000002B00F0D7806278002A40F0D380D90727
:1050B00039D5217811F0C00000F0FC8013F0040B0A
:1050C00000F0C181802900F0C982402900F04682A9
:1050D000180728D5DFF8C4A203F002019AF80900E6
:1050E000002800F0C780F1B995F84810890740F111
:1050F000B48021799AF8080041F00802227160B169
:1051000006F04000FCF784FC01214FF07E50FEF7D2
:1051100095FDA37803F0020129B943F010030220A2
:10512000A37004F063F99A4B1B7803F0FF0B002B7C
:1051300040F0AF80DFF868B29BF8003003F0FF0B5F
:10514000002B6FD01BF0100F40F06C811BF0010F93
:1051500040F089811BF0E80F28D023784FFA8BF2BA
:1051600099071DD113F0280F40F0B5810BF04000D6
:105170000BF00801002B40F0B7814FF0010C84F8D0
:1051800002C0002800F01F824120A07021B113F05E
:10519000E00F01D1102323701BF0200F40F001829B
:1051A000002AC0F2D181E82004F02AF91BF0020F96
:1051B0001FD01BF0680F19D12378402B00F0E3813A
:1051C000002B40F02C8200232371FEF745FF0028BE
:1051D00000F0A981A37813F0400340F0A4810822D5
:1051E000A370227003F012F802F096FC022004F083
:1051F00007F91BF0040F15D02178A37811F0D00F18
:105200005AB203D0E178002900F07981002AC0F277
:10521000788113F0200240F04B81A27022700420AC
:1052200004F0EEF85B4B1B7803F0FF0B002B40F013
:10523000B980594B1B7803F0FF0B002B49D1237821
:1052400013F0FC0F3FF42BAF02F0E0FFA378002B2C
:105250007FF429AF03B0BDE8F08F414606F030007F
:1052600002F036FB01214FF08140FEF7E7FCA37806
:1052700003F002019AF80820002A3FF44DAF0029FC
:105280003FF43EAF424B1B7803F0FF0B002B3FF483
:1052900051AF4FF0010958460BF1FF3B84F80090E5
:1052A00000F0DEFECB4540F2F680DFF8F4B004F00B
:1052B000B9F841E7E37A002B00F0B7809A0740F194
:1052C000D880364B5B7A002B40F027810023E372B5
:1052D00029E704F0CBF81BF0010F18BF6423A27A72
:1052E00008BF13461BF0020F1CBF0A33DBB21BF0D2
:1052F000040F1CBF0A3BDBB21BF0080F1CBF0133BD
:10530000DBB21BF0100F1CBF03F1FF33DBB2C82B65
:1053100028BFC8230A2B38BF0A239A4206D000218F
:105320002279A37242F00803237121731BF0200F2E
:1053300023780BF0C00202D0102B00F0C180002AAD
:105340003FF47EAF002B40F0FA80DFF850A01BF056
:10535000800F9AF8089006D019F0800F14BF09F05A
:105360007F0949F080091BF0400F06D019F0400F6B
:1053700014BF09F0BF0949F040094846FCF748FB53
:1053800023788AF808905BE7F8100020440F00208B
:10539000740F0020400F0020580F0020BC0E00208A
:1053A000590F002004F05AF81BF0010F18BF6423B6
:1053B000227A607A08BF13461BF0020F1CBF0A3323
:1053C000DBB21BF0040F1CBF0A3BDBB21BF0080F63
:1053D0001CBF0133DBB21BF0100F1CBF03F1FF3306
:1053E000DBB2C82B28BFC8230A2B38BF0A231BF007
:1053F000200F14BF642101461BF0400F18BF32215B
:105400001BF0800F18BF19219A4202D188423FF445
:1054100010AF0022237261722273FEF78FFEFFF736
:10542000E7F806E70123637039E623791B077FF568
:105430007AAE414606F0300002F04AFA237923F0B2
:10544000080323716FE63946584684F80BB002F022
:105450003FFA5846FCF7DCFAA37823F0020343F046
:105460000403A3705FE601F017FB012003F0C8FFFF
:1054700070E613F00C0F3FF456AE894A527A002AB8
:1054800040F0DF801A077FF521AF022003F0AEFF66
:105490000023E37247E6484600F0F8FD102003F0D1
:1054A000AFFFDFF800B29BF80030D806FBD5FEE670
:1054B000402203F07F0343F00103A3702270AEE6A5
:1054C000E17AB9B3C80737D541F00401E172002A87
:1054D0007FF43BAFB8E6A17811F0C00F00F08480F4
:1054E0000BF040000BF0080100283FF44FAE980687
:1054F0003FF54CAEA07840F04000A07046E6002A90
:1055000065DA00232371FEF75FFD02F011FDFCF761
:1055100081FBFFF74DF8A3787BE6394602F0D8F916
:105520000123E372FFE500230220A370237003F040
:1055300067FF5EE60221E172002A3FF485AE13F0B8
:10554000180F3FF47DAE00E72378012B03D1A37839
:1055500043F00503A3708023237024E603F024FDA9
:10556000A37800287FF4B4AD03F0DF03A370AFE5A8
:10557000202003F069FF90E5494B5E7A1A7AD3F850
:105580000C80164383E5A37813F020027FF42EAE3F
:10559000D9067CD458077FF529AE43F00803A370E1
:1055A00024E60620019200F071FDA378019A13F021
:1055B000800F04D12178402928D080292CD143F0B4
:1055C0002003A370ECE500297FF4E4ADE4E5FFF7E8
:1055D0000FF823799A0703D5A27842F00102A2704E
:1055E00023F0060323711AE6019202F0F9FD02216D
:1055F00023782171202B019A7FF4B8AD002AFFF6A1
:10560000CBADA37863F07F03A370C5E5180703D57E
:1056100023F01C0343F0020340212170CFE7DA0698
:105620007FF5E4ADA278D1077FF5E0AD102B7FF4D4
:10563000CAADE37A002B3FF4C6AD43F00803E37232
:10564000D4E50A2000F022FD95F84830990720D5CE
:105650002279E37A42F00802227113E70B200192CB
:1056600000F014FD019A0021104602F031F9019A70
:105670001046FCF7CDF902F08FFA6378002B7FF427
:10568000E9ADFFF713FB6378002BFAD0E2E5227057
:1056900099E5414606F0300002F01AF9E37AF1E6A6
:1056A000BC0E0020590F0020F8B5AB4B1B78002B27
:1056B00040F0BA80A94CAA4D2B7803F0FF05002BCF
:1056C0005BD0E80600F1AD80E90700F12B8115F011
:1056D000E80F33D023786EB29A0729D113F0280F40
:1056E00040F0548105F0400105F00802002B40F025
:1056F00055810120A070002900F077814121A1701F
:105700001AB113F0E00F00F07381A80610D506203F
:1057100000F0BCFCA378190607D42278402A00F0D8
:10572000A881802A01D04022227043F02003A37078
:10573000002EC0F24781E82003F062FEAB0719D5C6
:1057400015F0680F13D12378402B00F03281002B25
:1057500040F0518100232371FEF77EFC20B1A37835
:1057600013F0400300F076810023A3702370022021
:1057700003F046FE690700F1BD807A4B1B7803F009
:10578000FF05002B7BD1784B1B7803F0FF053BB95D
:10579000237813F0FC0F3BD1A378002B3DD1F8BD4B
:1057A00003F064FEA27A15F0010F0CBF13466423C8
:1057B000AE0744BF0A33DBB2680744BF0A3BDBB223
:1057C000290744BF0133DBB2EF0644BF03F1FF33C7
:1057D000DBB2C82B28BFC8230A2B38BF0A239A4242
:1057E00006D000212279A37242F0080323712173AD
:1057F000AE06237805F0C00225D5102B23D1E17A1F
:10580000002940F0E9800221E172002A40F09E80E8
:1058100002F0FCFCA378002BC1D0BDE8F840FFF7F4
:105820002BBC01236370B7E7012603F0FF054B4C47
:105830002846013D267000F013FCB54278D9484D4A
:1058400003F0F0FD38E7002AA3D0002B7ED1474FAC
:105850002A063E7A05D533064CBF06F07F0646F091
:105860008006680605D571064CBF06F0BF0646F0F7
:1058700040063046FCF7CCF823783E7289E703F007
:10588000EDFD217A15F0010F0CBF0B466423AF0725
:1058900044BF0A33DBB26E0744BF0A3BDBB22807C2
:1058A00044BF0133DBB2EF0644BF03F1FF33DBB289
:1058B000C82B28BFC8230A2B38BF0A23607A15F0EB
:1058C000200F14BF6422024615F0400F18BF322289
:1058D00015F0800F18BF1922994202D190423FF46F
:1058E00052AF0021237262722173FEF727FCFEF78C
:1058F0007FFE48E72278A37812F0D00F59B201D08A
:10590000E278AAB3002935DB13F020021BD0402235
:1059100003F07F0343F00103A3702270042003F01F
:105920006FFD2AE701F0B8F8012003F069FDCEE62B
:10593000304600F0ABFB102003F062FD084D2B78E1
:10594000DE06FCD57CE7A2702270E7E713F0180FA3
:105950003FF41FAF7BE700BF740F0020440F00200F
:10596000590F0020400F0020580F0020BC0E0020CF
:10597000002952DA00232371FEF726FB02F0D8FA41
:10598000FCF748F9FEF714FEA378BDE7A27812F001
:10599000C00F4FD005F0400105F0080200293FF488
:1059A000AFAE9F063FF5ACAEA17841F04001A170CB
:1059B000A6E6A37813F020027FF4D9AEDF0651D516
:1059C0002270C7E62378012B03D1A37843F00503A7
:1059D000A37080232370AEE6C80702D541F004010E
:1059E000E172002A7FF433AF12E7002A3FF48DAE54
:1059F0001023237089E6DA067FF5B9AEA278D007C6
:105A00007FF5B5AE102B7FF4A5AEE37A002B3FF403
:105A1000A1AE43F00803E372A9E6FEF7E9FD23799E
:105A20009A0703D5A27842F00102A27023F0060380
:105A3000237173E702F0D4FB022223782271202B1A
:105A40007FF450AE002EFFF660AEA37863F07F03C4
:105A5000A3705AE60822A370227002F0D7FB02F06E
:105A60005BF884E65E077FF582AE43F00803A3701F
:105A70007DE61A077FF557AE23F01C0343F00203BF
:105A800051E600BF2DE9F84FFEF7E6FA10B102200B
:105A900003F0ACFCBD4EBE4CBE4DDFF80083BE4FE4
:105AA000DFF8FC92337803F0FF0A002B40F0A5806A
:105AB0002B7803F0FF0A002B79D01AF0100F40F07A
:105AC00094801AF0010F40F048811AF0E80F33D0AB
:105AD00023784FFA8AFB9A0727D113F0280F00F09A
